{
  "_format": "hh-sol-artifact-1",
  "contractName": "Domains",
  "sourceName": "contracts/Domains.sol",
  "abi": [
    {
      "inputs": [
        {
          "internalType": "string",
          "name": "_tld",
          "type": "string"
        }
      ],
      "stateMutability": "payable",
      "type": "constructor"
    },
    {
      "inputs": [],
      "name": "AlreadyRegistered",
      "type": "error"
    },
    {
      "inputs": [
        {
          "internalType": "string",
          "name": "name",
          "type": "string"
        }
      ],
      "name": "InvalidName",
      "type": "error"
    },
    {
      "inputs": [],
      "name": "Unauthorized",
      "type": "error"
    },
    {
      "anonymous": false,
      "inputs": [
        {
          "indexed": true,
          "internalType": "address",
          "name": "owner",
          "type": "address"
        },
        {
          "indexed": true,
          "internalType": "address",
          "name": "approved",
          "type": "address"
        },
        {
          "indexed": true,
          "internalType": "uint256",
          "name": "tokenId",
          "type": "uint256"
        }
      ],
      "name": "Approval",
      "type": "event"
    },
    {
      "anonymous": false,
      "inputs": [
        {
          "indexed": true,
          "internalType": "address",
          "name": "owner",
          "type": "address"
        },
        {
          "indexed": true,
          "internalType": "address",
          "name": "operator",
          "type": "address"
        },
        {
          "indexed": false,
          "internalType": "bool",
          "name": "approved",
          "type": "bool"
        }
      ],
      "name": "ApprovalForAll",
      "type": "event"
    },
    {
      "anonymous": false,
      "inputs": [
        {
          "indexed": false,
          "internalType": "string",
          "name": "name",
          "type": "string"
        },
        {
          "indexed": false,
          "internalType": "address",
          "name": "minter",
          "type": "address"
        }
      ],
      "name": "Mint",
      "type": "event"
    },
    {
      "anonymous": false,
      "inputs": [
        {
          "indexed": false,
          "internalType": "string",
          "name": "name",
          "type": "string"
        },
        {
          "indexed": false,
          "internalType": "string",
          "name": "colour",
          "type": "string"
        },
        {
          "indexed": false,
          "internalType": "address",
          "name": "user",
          "type": "address"
        }
      ],
      "name": "Recolour",
      "type": "event"
    },
    {
      "anonymous": false,
      "inputs": [
        {
          "indexed": true,
          "internalType": "address",
          "name": "from",
          "type": "address"
        },
        {
          "indexed": true,
          "internalType": "address",
          "name": "to",
          "type": "address"
        },
        {
          "indexed": true,
          "internalType": "uint256",
          "name": "tokenId",
          "type": "uint256"
        }
      ],
      "name": "Transfer",
      "type": "event"
    },
    {
      "inputs": [
        {
          "internalType": "address",
          "name": "to",
          "type": "address"
        },
        {
          "internalType": "uint256",
          "name": "tokenId",
          "type": "uint256"
        }
      ],
      "name": "approve",
      "outputs": [],
      "stateMutability": "nonpayable",
      "type": "function"
    },
    {
      "inputs": [
        {
          "internalType": "address",
          "name": "owner",
          "type": "address"
        }
      ],
      "name": "balanceOf",
      "outputs": [
        {
          "internalType": "uint256",
          "name": "",
          "type": "uint256"
        }
      ],
      "stateMutability": "view",
      "type": "function"
    },
    {
      "inputs": [
        {
          "internalType": "string",
          "name": "",
          "type": "string"
        }
      ],
      "name": "colours",
      "outputs": [
        {
          "internalType": "string",
          "name": "",
          "type": "string"
        }
      ],
      "stateMutability": "view",
      "type": "function"
    },
    {
      "inputs": [
        {
          "internalType": "string",
          "name": "name",
          "type": "string"
        }
      ],
      "name": "getAddress",
      "outputs": [
        {
          "internalType": "address",
          "name": "",
          "type": "address"
        }
      ],
      "stateMutability": "view",
      "type": "function"
    },
    {
      "inputs": [],
      "name": "getAllPlanets",
      "outputs": [
        {
          "internalType": "string[]",
          "name": "",
          "type": "string[]"
        }
      ],
      "stateMutability": "view",
      "type": "function"
    },
    {
      "inputs": [
        {
          "internalType": "uint256",
          "name": "tokenId",
          "type": "uint256"
        }
      ],
      "name": "getApproved",
      "outputs": [
        {
          "internalType": "address",
          "name": "",
          "type": "address"
        }
      ],
      "stateMutability": "view",
      "type": "function"
    },
    {
      "inputs": [
        {
          "internalType": "string",
          "name": "name",
          "type": "string"
        }
      ],
      "name": "getColour",
      "outputs": [
        {
          "internalType": "string",
          "name": "",
          "type": "string"
        }
      ],
      "stateMutability": "view",
      "type": "function"
    },
    {
      "inputs": [
        {
          "internalType": "address",
          "name": "owner",
          "type": "address"
        },
        {
          "internalType": "address",
          "name": "operator",
          "type": "address"
        }
      ],
      "name": "isApprovedForAll",
      "outputs": [
        {
          "internalType": "bool",
          "name": "",
          "type": "bool"
        }
      ],
      "stateMutability": "view",
      "type": "function"
    },
    {
      "inputs": [],
      "name": "isOwner",
      "outputs": [
        {
          "internalType": "bool",
          "name": "",
          "type": "bool"
        }
      ],
      "stateMutability": "view",
      "type": "function"
    },
    {
      "inputs": [],
      "name": "name",
      "outputs": [
        {
          "internalType": "string",
          "name": "",
          "type": "string"
        }
      ],
      "stateMutability": "view",
      "type": "function"
    },
    {
      "inputs": [
        {
          "internalType": "uint256",
          "name": "",
          "type": "uint256"
        }
      ],
      "name": "names",
      "outputs": [
        {
          "internalType": "string",
          "name": "",
          "type": "string"
        }
      ],
      "stateMutability": "view",
      "type": "function"
    },
    {
      "inputs": [],
      "name": "owner",
      "outputs": [
        {
          "internalType": "address payable",
          "name": "",
          "type": "address"
        }
      ],
      "stateMutability": "view",
      "type": "function"
    },
    {
      "inputs": [
        {
          "internalType": "uint256",
          "name": "tokenId",
          "type": "uint256"
        }
      ],
      "name": "ownerOf",
      "outputs": [
        {
          "internalType": "address",
          "name": "",
          "type": "address"
        }
      ],
      "stateMutability": "view",
      "type": "function"
    },
    {
      "inputs": [
        {
          "internalType": "string",
          "name": "",
          "type": "string"
        }
      ],
      "name": "planets",
      "outputs": [
        {
          "internalType": "address",
          "name": "",
          "type": "address"
        }
      ],
      "stateMutability": "view",
      "type": "function"
    },
    {
      "inputs": [
        {
          "internalType": "string",
          "name": "name",
          "type": "string"
        }
      ],
      "name": "price",
      "outputs": [
        {
          "internalType": "uint256",
          "name": "",
          "type": "uint256"
        }
      ],
      "stateMutability": "pure",
      "type": "function"
    },
    {
      "inputs": [
        {
          "internalType": "string",
          "name": "name",
          "type": "string"
        }
      ],
      "name": "register",
      "outputs": [],
      "stateMutability": "payable",
      "type": "function"
    },
    {
      "inputs": [
        {
          "internalType": "address",
          "name": "from",
          "type": "address"
        },
        {
          "internalType": "address",
          "name": "to",
          "type": "address"
        },
        {
          "internalType": "uint256",
          "name": "tokenId",
          "type": "uint256"
        }
      ],
      "name": "safeTransferFrom",
      "outputs": [],
      "stateMutability": "nonpayable",
      "type": "function"
    },
    {
      "inputs": [
        {
          "internalType": "address",
          "name": "from",
          "type": "address"
        },
        {
          "internalType": "address",
          "name": "to",
          "type": "address"
        },
        {
          "internalType": "uint256",
          "name": "tokenId",
          "type": "uint256"
        },
        {
          "internalType": "bytes",
          "name": "_data",
          "type": "bytes"
        }
      ],
      "name": "safeTransferFrom",
      "outputs": [],
      "stateMutability": "nonpayable",
      "type": "function"
    },
    {
      "inputs": [
        {
          "internalType": "address",
          "name": "operator",
          "type": "address"
        },
        {
          "internalType": "bool",
          "name": "approved",
          "type": "bool"
        }
      ],
      "name": "setApprovalForAll",
      "outputs": [],
      "stateMutability": "nonpayable",
      "type": "function"
    },
    {
      "inputs": [
        {
          "internalType": "string",
          "name": "name",
          "type": "string"
        },
        {
          "internalType": "string",
          "name": "colour",
          "type": "string"
        }
      ],
      "name": "setColour",
      "outputs": [],
      "stateMutability": "nonpayable",
      "type": "function"
    },
    {
      "inputs": [
        {
          "internalType": "bytes4",
          "name": "interfaceId",
          "type": "bytes4"
        }
      ],
      "name": "supportsInterface",
      "outputs": [
        {
          "internalType": "bool",
          "name": "",
          "type": "bool"
        }
      ],
      "stateMutability": "view",
      "type": "function"
    },
    {
      "inputs": [],
      "name": "symbol",
      "outputs": [
        {
          "internalType": "string",
          "name": "",
          "type": "string"
        }
      ],
      "stateMutability": "view",
      "type": "function"
    },
    {
      "inputs": [],
      "name": "tld",
      "outputs": [
        {
          "internalType": "string",
          "name": "",
          "type": "string"
        }
      ],
      "stateMutability": "view",
      "type": "function"
    },
    {
      "inputs": [
        {
          "internalType": "uint256",
          "name": "tokenId",
          "type": "uint256"
        }
      ],
      "name": "tokenURI",
      "outputs": [
        {
          "internalType": "string",
          "name": "",
          "type": "string"
        }
      ],
      "stateMutability": "view",
      "type": "function"
    },
    {
      "inputs": [
        {
          "internalType": "address",
          "name": "from",
          "type": "address"
        },
        {
          "internalType": "address",
          "name": "to",
          "type": "address"
        },
        {
          "internalType": "uint256",
          "name": "tokenId",
          "type": "uint256"
        }
      ],
      "name": "transferFrom",
      "outputs": [],
      "stateMutability": "nonpayable",
      "type": "function"
    },
    {
      "inputs": [
        {
          "internalType": "string",
          "name": "name",
          "type": "string"
        }
      ],
      "name": "valid",
      "outputs": [
        {
          "internalType": "bool",
          "name": "",
          "type": "bool"
        }
      ],
      "stateMutability": "pure",
      "type": "function"
    },
    {
      "inputs": [],
      "name": "withdraw",
      "outputs": [],
      "stateMutability": "nonpayable",
      "type": "function"
    }
  ],
  "bytecode": "0x6080604052604051806108a0016040528061086881526020016200544861086891396008908051906020019062000038929190620002ac565b506040518060400160405280600d81526020017f3c2f746578743e3c2f7376673e000000000000000000000000000000000000008152506009908051906020019062000086929190620002ac565b5060405162005cd638038062005cd68339818101604052810190620000ac9190620004f9565b60405180606001604052806026815260200162005cb0602691396040518060400160405280600381526020017f414e530000000000000000000000000000000000000000000000000000000000815250816000908051906020019062000114929190620002ac565b5080600190805190602001906200012d929190620002ac565b50505033600b60006101000a81548173ffffffffffffffffffffffffffffffffffffffff021916908373ffffffffffffffffffffffffffffffffffffffff16021790555080600a908051906020019062000189929190620002ac565b50620001d66040518060400160405280601881526020017f2573206e616d652073657276696365206465706c6f796564000000000000000081525082620001dd60201b62001b8f1760201c565b5062000647565b6200027f8282604051602401620001f6929190620005a7565b6040516020818303038152906040527f4b5c4277000000000000000000000000000000000000000000000000000000007bffffffffffffffffffffffffffffffffffffffffffffffffffffffff19166020820180517bffffffffffffffffffffffffffffffffffffffffffffffffffffffff83818316178352505050506200028360201b60201c565b5050565b60008151905060006a636f6e736f6c652e6c6f679050602083016000808483855afa5050505050565b828054620002ba9062000611565b90600052602060002090601f016020900481019282620002de57600085556200032a565b82601f10620002f957805160ff19168380011785556200032a565b828001600101855582156200032a579182015b82811115620003295782518255916020019190600101906200030c565b5b5090506200033991906200033d565b5090565b5b80821115620003585760008160009055506001016200033e565b5090565b6000604051905090565b600080fd5b600080fd5b600080fd5b600080fd5b6000601f19601f8301169050919050565b7f4e487b7100000000000000000000000000000000000000000000000000000000600052604160045260246000fd5b620003c5826200037a565b810181811067ffffffffffffffff82111715620003e757620003e66200038b565b5b80604052505050565b6000620003fc6200035c565b90506200040a8282620003ba565b919050565b600067ffffffffffffffff8211156200042d576200042c6200038b565b5b62000438826200037a565b9050602081019050919050565b60005b838110156200046557808201518184015260208101905062000448565b8381111562000475576000848401525b50505050565b6000620004926200048c846200040f565b620003f0565b905082815260208101848484011115620004b157620004b062000375565b5b620004be84828562000445565b509392505050565b600082601f830112620004de57620004dd62000370565b5b8151620004f08482602086016200047b565b91505092915050565b60006020828403121562000512576200051162000366565b5b600082015167ffffffffffffffff8111156200053357620005326200036b565b5b6200054184828501620004c6565b91505092915050565b600081519050919050565b600082825260208201905092915050565b600062000573826200054a565b6200057f818562000555565b93506200059181856020860162000445565b6200059c816200037a565b840191505092915050565b60006040820190508181036000830152620005c3818562000566565b90508181036020830152620005d9818462000566565b90509392505050565b7f4e487b7100000000000000000000000000000000000000000000000000000000600052602260045260246000fd5b600060028204905060018216806200062a57607f821691505b60208210811415620006415762000640620005e2565b5b50919050565b614df180620006576000396000f3fe60806040526004361061019c5760003560e01c8063714ed891116100ec578063a22cb4651161008a578063c87b56dd11610064578063c87b56dd14610612578063e985e9c51461064f578063f2c298be1461068c578063fe2c6198146106a85761019c565b8063a22cb46514610583578063b88d4fde146105ac578063bf40fac1146105d55761019c565b80638da5cb5b116100c65780638da5cb5b146104c55780638f32d59b146104f057806395d89b411461051b5780639791c097146105465761019c565b8063714ed891146104225780637fb6f4bc1461045f578063857895b5146104885761019c565b80633ccfd60b116101595780635f845102116101335780635f845102146103405780636352211e1461037d5780636a23befb146103ba57806370a08231146103e55761019c565b80633ccfd60b146102c357806342842e0e146102da5780634622ab03146103035761019c565b806301ffc9a7146101a157806306fdde03146101de578063081812fc14610209578063095ea7b31461024657806323b872dd1461026f5780632d55143214610298575b600080fd5b3480156101ad57600080fd5b506101c860048036038101906101c39190613071565b6106e5565b6040516101d591906130b9565b60405180910390f35b3480156101ea57600080fd5b506101f36107c7565b604051610200919061316d565b60405180910390f35b34801561021557600080fd5b50610230600480360381019061022b91906131c5565b610859565b60405161023d9190613233565b60405180910390f35b34801561025257600080fd5b5061026d6004803603810190610268919061327a565b6108de565b005b34801561027b57600080fd5b50610296600480360381019061029191906132ba565b6109f6565b005b3480156102a457600080fd5b506102ad610a56565b6040516102ba919061316d565b60405180910390f35b3480156102cf57600080fd5b506102d8610ae4565b005b3480156102e657600080fd5b5061030160048036038101906102fc91906132ba565b610baa565b005b34801561030f57600080fd5b5061032a600480360381019061032591906131c5565b610bca565b604051610337919061316d565b60405180910390f35b34801561034c57600080fd5b5061036760048036038101906103629190613442565b610c6a565b6040516103749190613233565b60405180910390f35b34801561038957600080fd5b506103a4600480360381019061039f91906131c5565b610cb3565b6040516103b19190613233565b60405180910390f35b3480156103c657600080fd5b506103cf610d65565b6040516103dc9190613597565b60405180910390f35b3480156103f157600080fd5b5061040c600480360381019061040791906135b9565b610f26565b60405161041991906135f5565b60405180910390f35b34801561042e57600080fd5b5061044960048036038101906104449190613670565b610fde565b604051610456919061316d565b60405180910390f35b34801561046b57600080fd5b50610486600480360381019061048191906136bd565b611091565b005b34801561049457600080fd5b506104af60048036038101906104aa9190613442565b6111ab565b6040516104bc919061316d565b60405180910390f35b3480156104d157600080fd5b506104da611261565b6040516104e7919061375f565b60405180910390f35b3480156104fc57600080fd5b50610505611287565b60405161051291906130b9565b60405180910390f35b34801561052757600080fd5b506105306112df565b60405161053d919061316d565b60405180910390f35b34801561055257600080fd5b5061056d60048036038101906105689190613670565b611371565b60405161057a91906130b9565b60405180910390f35b34801561058f57600080fd5b506105aa60048036038101906105a591906137a6565b611425565b005b3480156105b857600080fd5b506105d360048036038101906105ce9190613887565b61143b565b005b3480156105e157600080fd5b506105fc60048036038101906105f79190613670565b61149d565b6040516106099190613233565b60405180910390f35b34801561061e57600080fd5b50610639600480360381019061063491906131c5565b6114e8565b604051610646919061316d565b60405180910390f35b34801561065b57600080fd5b506106766004803603810190610671919061390a565b61163a565b60405161068391906130b9565b60405180910390f35b6106a660048036038101906106a19190613670565b6116ce565b005b3480156106b457600080fd5b506106cf60048036038101906106ca9190613670565b611ab6565b6040516106dc91906135f5565b60405180910390f35b60007f80ac58cd000000000000000000000000000000000000000000000000000000007bffffffffffffffffffffffffffffffffffffffffffffffffffffffff1916827bffffffffffffffffffffffffffffffffffffffffffffffffffffffff191614806107b057507f5b5e139f000000000000000000000000000000000000000000000000000000007bffffffffffffffffffffffffffffffffffffffffffffffffffffffff1916827bffffffffffffffffffffffffffffffffffffffffffffffffffffffff1916145b806107c057506107bf82611c2b565b5b9050919050565b6060600080546107d690613979565b80601f016020809104026020016040519081016040528092919081815260200182805461080290613979565b801561084f5780601f106108245761010080835404028352916020019161084f565b820191906000526020600020905b81548152906001019060200180831161083257829003601f168201915b5050505050905090565b600061086482611c95565b6108a3576040517f08c379a000000000000000000000000000000000000000000000000000000000815260040161089a90613a1d565b60405180910390fd5b6004600083815260200190815260200160002060009054906101000a900473ffffffffffffffffffffffffffffffffffffffff169050919050565b60006108e982610cb3565b90508073ffffffffffffffffffffffffffffffffffffffff168373ffffffffffffffffffffffffffffffffffffffff16141561095a576040517f08c379a000000000000000000000000000000000000000000000000000000000815260040161095190613aaf565b60405180910390fd5b8073ffffffffffffffffffffffffffffffffffffffff16610979611d01565b73ffffffffffffffffffffffffffffffffffffffff1614806109a857506109a7816109a2611d01565b61163a565b5b6109e7576040517f08c379a00000000000000000000000000000000000000000000000000000000081526004016109de90613b41565b60405180910390fd5b6109f18383611d09565b505050565b610a07610a01611d01565b82611dc2565b610a46576040517f08c379a0000000000000000000000000000000000000000000000000000000008152600401610a3d90613bd3565b60405180910390fd5b610a51838383611ea0565b505050565b600a8054610a6390613979565b80601f0160208091040260200160405190810160405280929190818152602001828054610a8f90613979565b8015610adc5780601f10610ab157610100808354040283529160200191610adc565b820191906000526020600020905b815481529060010190602001808311610abf57829003601f168201915b505050505081565b610aec611287565b610af557600080fd5b600047905060003373ffffffffffffffffffffffffffffffffffffffff1682604051610b2090613c24565b60006040518083038185875af1925050503d8060008114610b5d576040519150601f19603f3d011682016040523d82523d6000602084013e610b62565b606091505b5050905080610ba6576040517f08c379a0000000000000000000000000000000000000000000000000000000008152600401610b9d90613c85565b60405180910390fd5b5050565b610bc58383836040518060200160405280600081525061143b565b505050565b600e6020528060005260406000206000915090508054610be990613979565b80601f0160208091040260200160405190810160405280929190818152602001828054610c1590613979565b8015610c625780601f10610c3757610100808354040283529160200191610c62565b820191906000526020600020905b815481529060010190602001808311610c4557829003601f168201915b505050505081565b600c818051602081018201805184825260208301602085012081835280955050505050506000915054906101000a900473ffffffffffffffffffffffffffffffffffffffff1681565b6000806002600084815260200190815260200160002060009054906101000a900473ffffffffffffffffffffffffffffffffffffffff169050600073ffffffffffffffffffffffffffffffffffffffff168173ffffffffffffffffffffffffffffffffffffffff161415610d5c576040517f08c379a0000000000000000000000000000000000000000000000000000000008152600401610d5390613d17565b60405180910390fd5b80915050919050565b6060610d88604051806060016040528060218152602001614cbb60219139612107565b6000610d9460076121a0565b67ffffffffffffffff811115610dad57610dac613317565b5b604051908082528060200260200182016040528015610de057816020015b6060815260200190600190039081610dcb5790505b50905060005b610df060076121a0565b811015610f1e57600e60008281526020019081526020016000208054610e1590613979565b80601f0160208091040260200160405190810160405280929190818152602001828054610e4190613979565b8015610e8e5780601f10610e6357610100808354040283529160200191610e8e565b820191906000526020600020905b815481529060010190602001808311610e7157829003601f168201915b5050505050828281518110610ea657610ea5613d37565b5b6020026020010181905250610f0b6040518060400160405280601781526020017f4e616d6520666f7220746f6b656e20256420697320257300000000000000000081525082848481518110610efe57610efd613d37565b5b60200260200101516121ae565b8080610f1690613d95565b915050610de6565b508091505090565b60008073ffffffffffffffffffffffffffffffffffffffff168273ffffffffffffffffffffffffffffffffffffffff161415610f97576040517f08c379a0000000000000000000000000000000000000000000000000000000008152600401610f8e90613e50565b60405180910390fd5b600360008373ffffffffffffffffffffffffffffffffffffffff1673ffffffffffffffffffffffffffffffffffffffff168152602001908152602001600020549050919050565b6060600d8383604051610ff2929190613ea0565b9081526020016040518091039020805461100b90613979565b80601f016020809104026020016040519081016040528092919081815260200182805461103790613979565b80156110845780601f1061105957610100808354040283529160200191611084565b820191906000526020600020905b81548152906001019060200180831161106757829003601f168201915b5050505050905092915050565b3373ffffffffffffffffffffffffffffffffffffffff16600c85856040516110ba929190613ea0565b908152602001604051809103902060009054906101000a900473ffffffffffffffffffffffffffffffffffffffff1673ffffffffffffffffffffffffffffffffffffffff1614611136576040517f82b4290000000000000000000000000000000000000000000000000000000000815260040160405180910390fd5b8181600d868660405161114a929190613ea0565b90815260200160405180910390209190611165929190612edc565b507f1e2bae9e85deaee6697eb76fc62040d50b0e39158c70ac26cb3c148c4645239e848484843360405161119d959493929190613ee6565b60405180910390a150505050565b600d8180516020810182018051848252602083016020850120818352809550505050505060009150905080546111e090613979565b80601f016020809104026020016040519081016040528092919081815260200182805461120c90613979565b80156112595780601f1061122e57610100808354040283529160200191611259565b820191906000526020600020905b81548152906001019060200180831161123c57829003601f168201915b505050505081565b600b60009054906101000a900473ffffffffffffffffffffffffffffffffffffffff1681565b6000600b60009054906101000a900473ffffffffffffffffffffffffffffffffffffffff1673ffffffffffffffffffffffffffffffffffffffff163373ffffffffffffffffffffffffffffffffffffffff1614905090565b6060600180546112ee90613979565b80601f016020809104026020016040519081016040528092919081815260200182805461131a90613979565b80156113675780601f1061133c57610100808354040283529160200191611367565b820191906000526020600020905b81548152906001019060200180831161134a57829003601f168201915b5050505050905090565b600060036113c284848080601f016020809104026020016040519081016040528093929190818152602001838380828437600081840152601f19601f8201169050808301925050505050505061224d565b1015801561141d5750600c61141a84848080601f016020809104026020016040519081016040528093929190818152602001838380828437600081840152601f19601f8201169050808301925050505050505061224d565b11155b905092915050565b611437611430611d01565b8383612402565b5050565b61144c611446611d01565b83611dc2565b61148b576040517f08c379a000000000000000000000000000000000000000000000000000000000815260040161148290613bd3565b60405180910390fd5b6114978484848461256f565b50505050565b6000600c83836040516114b1929190613ea0565b908152602001604051809103902060009054906101000a900473ffffffffffffffffffffffffffffffffffffffff16905092915050565b60606114f382611c95565b611532576040517f08c379a000000000000000000000000000000000000000000000000000000000815260040161152990613fa1565b60405180910390fd5b600060066000848152602001908152602001600020805461155290613979565b80601f016020809104026020016040519081016040528092919081815260200182805461157e90613979565b80156115cb5780601f106115a0576101008083540402835291602001916115cb565b820191906000526020600020905b8154815290600101906020018083116115ae57829003601f168201915b5050505050905060006115dc6125cb565b90506000815114156115f2578192505050611635565b60008251111561162757808260405160200161160f929190613ff2565b60405160208183030381529060405292505050611635565b611630846125e2565b925050505b919050565b6000600560008473ffffffffffffffffffffffffffffffffffffffff1673ffffffffffffffffffffffffffffffffffffffff16815260200190815260200160002060008373ffffffffffffffffffffffffffffffffffffffff1673ffffffffffffffffffffffffffffffffffffffff16815260200190815260200160002060009054906101000a900460ff16905092915050565b600073ffffffffffffffffffffffffffffffffffffffff16600c83836040516116f8929190613ea0565b908152602001604051809103902060009054906101000a900473ffffffffffffffffffffffffffffffffffffffff1673ffffffffffffffffffffffffffffffffffffffff1614611774576040517f3a81d6fc00000000000000000000000000000000000000000000000000000000815260040160405180910390fd5b61177e8282611371565b6117c15781816040517f7f19f48d0000000000000000000000000000000000000000000000000000000081526004016117b8929190614016565b60405180910390fd5b60006117cd8383611ab6565b905080341015611812576040517f08c379a000000000000000000000000000000000000000000000000000000000815260040161180990614086565b60405180910390fd5b60008383600a60405160200161182a93929190614186565b604051602081830303815290604052905060006008826009604051602001611854939291906141b7565b6040516020818303038152906040529050600061187160076121a0565b905060006118c287878080601f016020809104026020016040519081016040528093929190818152602001838380828437600081840152601f19601f8201169050808301925050505050505061224d565b905060006118cf82612689565b90506118f46040518060600160405280602e8152602001614d8e602e913986856127ea565b600061192a8661190387612889565b8460405160200161191693929190614364565b604051602081830303815290604052612889565b905060008160405160200161193f919061440d565b6040516020818303038152906040529050611971604051806060016040528060398152602001614cdc60399139612107565b6119b06040518060400160405280600e81526020017f46696e616c20746f6b656e55524900000000000000000000000000000000000081525082611b8f565b6119d1604051806060016040528060398152602001614d1560399139612107565b6119db3386612a21565b6119e58582612a3f565b33600c8b8b6040516119f8929190613ea0565b908152602001604051809103902060006101000a81548173ffffffffffffffffffffffffffffffffffffffff021916908373ffffffffffffffffffffffffffffffffffffffff1602179055508989600e60008881526020019081526020016000209190611a66929190612edc565b50611a716007612ab3565b7f79b04a02d84fec4f53dec01c843dee92deee8a6d7dc31a65ae8c2c6b60200cf38733604051611aa292919061442f565b60405180910390a150505050505050505050565b600080611b0684848080601f016020809104026020016040519081016040528093929190818152602001838380828437600081840152601f19601f8201169050808301925050505050505061224d565b905060008111611b4b576040517f08c379a0000000000000000000000000000000000000000000000000000000008152600401611b42906144d1565b60405180910390fd5b6003811415611b645766b1a2bc2ec50000915050611b89565b6004811415611b7d57666a94d74f430000915050611b89565b662386f26fc100009150505b92915050565b611c278282604051602401611ba59291906144f1565b6040516020818303038152906040527f4b5c4277000000000000000000000000000000000000000000000000000000007bffffffffffffffffffffffffffffffffffffffffffffffffffffffff19166020820180517bffffffffffffffffffffffffffffffffffffffffffffffffffffffff8381831617835250505050612ac9565b5050565b60007f01ffc9a7000000000000000000000000000000000000000000000000000000007bffffffffffffffffffffffffffffffffffffffffffffffffffffffff1916827bffffffffffffffffffffffffffffffffffffffffffffffffffffffff1916149050919050565b60008073ffffffffffffffffffffffffffffffffffffffff166002600084815260200190815260200160002060009054906101000a900473ffffffffffffffffffffffffffffffffffffffff1673ffffffffffffffffffffffffffffffffffffffff1614159050919050565b600033905090565b816004600083815260200190815260200160002060006101000a81548173ffffffffffffffffffffffffffffffffffffffff021916908373ffffffffffffffffffffffffffffffffffffffff160217905550808273ffffffffffffffffffffffffffffffffffffffff16611d7c83610cb3565b73ffffffffffffffffffffffffffffffffffffffff167f8c5be1e5ebec7d5bd14f71427d1e84f3dd0314c0f7b2291e5b200ac8c7c3b92560405160405180910390a45050565b6000611dcd82611c95565b611e0c576040517f08c379a0000000000000000000000000000000000000000000000000000000008152600401611e039061459a565b60405180910390fd5b6000611e1783610cb3565b90508073ffffffffffffffffffffffffffffffffffffffff168473ffffffffffffffffffffffffffffffffffffffff161480611e8657508373ffffffffffffffffffffffffffffffffffffffff16611e6e84610859565b73ffffffffffffffffffffffffffffffffffffffff16145b80611e975750611e96818561163a565b5b91505092915050565b8273ffffffffffffffffffffffffffffffffffffffff16611ec082610cb3565b73ffffffffffffffffffffffffffffffffffffffff1614611f16576040517f08c379a0000000000000000000000000000000000000000000000000000000008152600401611f0d9061462c565b60405180910390fd5b600073ffffffffffffffffffffffffffffffffffffffff168273ffffffffffffffffffffffffffffffffffffffff161415611f86576040517f08c379a0000000000000000000000000000000000000000000000000000000008152600401611f7d906146be565b60405180910390fd5b611f91838383612af2565b611f9c600082611d09565b6001600360008573ffffffffffffffffffffffffffffffffffffffff1673ffffffffffffffffffffffffffffffffffffffff1681526020019081526020016000206000828254611fec91906146de565b925050819055506001600360008473ffffffffffffffffffffffffffffffffffffffff1673ffffffffffffffffffffffffffffffffffffffff16815260200190815260200160002060008282546120439190614712565b92505081905550816002600083815260200190815260200160002060006101000a81548173ffffffffffffffffffffffffffffffffffffffff021916908373ffffffffffffffffffffffffffffffffffffffff160217905550808273ffffffffffffffffffffffffffffffffffffffff168473ffffffffffffffffffffffffffffffffffffffff167fddf252ad1be2c89b69c2b068fc378daa952ba7f163c4a11628f55a4df523b3ef60405160405180910390a4612102838383612af7565b505050565b61219d8160405160240161211b919061316d565b6040516020818303038152906040527f41304fac000000000000000000000000000000000000000000000000000000007bffffffffffffffffffffffffffffffffffffffffffffffffffffffff19166020820180517bffffffffffffffffffffffffffffffffffffffffffffffffffffffff8381831617835250505050612ac9565b50565b600081600001549050919050565b6122488383836040516024016121c693929190614768565b6040516020818303038152906040527fa3f5c739000000000000000000000000000000000000000000000000000000007bffffffffffffffffffffffffffffffffffffffffffffffffffffffff19166020820180517bffffffffffffffffffffffffffffffffffffffffffffffffffffffff8381831617835250505050612ac9565b505050565b60008060008084519050600092505b808210156123f757600085838151811061227957612278613d37565b5b602001015160f81c60f81b9050608060f81b817effffffffffffffffffffffffffffffffffffffffffffffffffffffffffffff191610156122c8576001836122c19190614712565b92506123e3565b60e060f81b817effffffffffffffffffffffffffffffffffffffffffffffffffffffffffffff1916101561230a576002836123039190614712565b92506123e2565b60f060f81b817effffffffffffffffffffffffffffffffffffffffffffffffffffffffffffff1916101561234c576003836123459190614712565b92506123e1565b60f8801b817effffffffffffffffffffffffffffffffffffffffffffffffffffffffffffff1916101561238d576004836123869190614712565b92506123e0565b60fc60f81b817effffffffffffffffffffffffffffffffffffffffffffffffffffffffffffff191610156123cf576005836123c89190614712565b92506123df565b6006836123dc9190614712565b92505b5b5b5b5b5082806123ef90613d95565b93505061225c565b829350505050919050565b8173ffffffffffffffffffffffffffffffffffffffff168373ffffffffffffffffffffffffffffffffffffffff161415612471576040517f08c379a0000000000000000000000000000000000000000000000000000000008152600401612468906147f9565b60405180910390fd5b80600560008573ffffffffffffffffffffffffffffffffffffffff1673ffffffffffffffffffffffffffffffffffffffff16815260200190815260200160002060008473ffffffffffffffffffffffffffffffffffffffff1673ffffffffffffffffffffffffffffffffffffffff16815260200190815260200160002060006101000a81548160ff0219169083151502179055508173ffffffffffffffffffffffffffffffffffffffff168373ffffffffffffffffffffffffffffffffffffffff167f17307eab39ab6107e8899845ad3d59bd9653f200f220920489ca2b5937696c318360405161256291906130b9565b60405180910390a3505050565b61257a848484611ea0565b61258684848484612afc565b6125c5576040517f08c379a00000000000000000000000000000000000000000000000000000000081526004016125bc9061488b565b60405180910390fd5b50505050565b606060405180602001604052806000815250905090565b60606125ed82611c95565b61262c576040517f08c379a00000000000000000000000000000000000000000000000000000000081526004016126239061491d565b60405180910390fd5b60006126366125cb565b905060008151116126565760405180602001604052806000815250612681565b8061266084612689565b604051602001612671929190613ff2565b6040516020818303038152906040525b915050919050565b606060008214156126d1576040518060400160405280600181526020017f300000000000000000000000000000000000000000000000000000000000000081525090506127e5565b600082905060005b600082146127035780806126ec90613d95565b915050600a826126fc919061496c565b91506126d9565b60008167ffffffffffffffff81111561271f5761271e613317565b5b6040519080825280601f01601f1916602001820160405280156127515781602001600182028036833780820191505090505b5090505b600085146127de5760018261276a91906146de565b9150600a85612779919061499d565b60306127859190614712565b60f81b81838151811061279b5761279a613d37565b5b60200101907effffffffffffffffffffffffffffffffffffffffffffffffffffffffffffff1916908160001a905350600a856127d7919061496c565b9450612755565b8093505050505b919050565b612884838383604051602401612802939291906149ce565b6040516020818303038152906040527ff362ca59000000000000000000000000000000000000000000000000000000007bffffffffffffffffffffffffffffffffffffffffffffffffffffffff19166020820180517bffffffffffffffffffffffffffffffffffffffffffffffffffffffff8381831617835250505050612ac9565b505050565b606060008251905060008114156128b25760405180602001604052806000815250915050612a1c565b600060036002836128c39190614712565b6128cd919061496c565b60046128d99190614a13565b905060006020826128ea9190614712565b67ffffffffffffffff81111561290357612902613317565b5b6040519080825280601f01601f1916602001820160405280156129355781602001600182028036833780820191505090505b5090506000604051806060016040528060408152602001614d4e604091399050600181016020830160005b868110156129d95760038101905062ffffff818a015116603f8160121c168401518060081b905060ff603f83600c1c1686015116810190508060081b905060ff603f8360061c1686015116810190508060081b905060ff603f831686015116810190508060e01b90508084526004840193505050612960565b5060038606600181146129f35760028114612a0357612a0e565b613d3d60f01b6002830352612a0e565b603d60f81b60018303525b508484525050819450505050505b919050565b612a3b828260405180602001604052806000815250612c84565b5050565b612a4882611c95565b612a87576040517f08c379a0000000000000000000000000000000000000000000000000000000008152600401612a7e90614adf565b60405180910390fd5b80600660008481526020019081526020016000209080519060200190612aae929190612f62565b505050565b6001816000016000828254019250508190555050565b60008151905060006a636f6e736f6c652e6c6f679050602083016000808483855afa5050505050565b505050565b505050565b6000612b1d8473ffffffffffffffffffffffffffffffffffffffff16612cdf565b15612c77578373ffffffffffffffffffffffffffffffffffffffff1663150b7a02612b46611d01565b8786866040518563ffffffff1660e01b8152600401612b689493929190614b54565b6020604051808303816000875af1925050508015612ba457506040513d601f19601f82011682018060405250810190612ba19190614bb5565b60015b612c27573d8060008114612bd4576040519150601f19603f3d011682016040523d82523d6000602084013e612bd9565b606091505b50600081511415612c1f576040517f08c379a0000000000000000000000000000000000000000000000000000000008152600401612c169061488b565b60405180910390fd5b805181602001fd5b63150b7a0260e01b7bffffffffffffffffffffffffffffffffffffffffffffffffffffffff1916817bffffffffffffffffffffffffffffffffffffffffffffffffffffffff191614915050612c7c565b600190505b949350505050565b612c8e8383612d02565b612c9b6000848484612afc565b612cda576040517f08c379a0000000000000000000000000000000000000000000000000000000008152600401612cd19061488b565b60405180910390fd5b505050565b6000808273ffffffffffffffffffffffffffffffffffffffff163b119050919050565b600073ffffffffffffffffffffffffffffffffffffffff168273ffffffffffffffffffffffffffffffffffffffff161415612d72576040517f08c379a0000000000000000000000000000000000000000000000000000000008152600401612d6990614c2e565b60405180910390fd5b612d7b81611c95565b15612dbb576040517f08c379a0000000000000000000000000000000000000000000000000000000008152600401612db290614c9a565b60405180910390fd5b612dc760008383612af2565b6001600360008473ffffffffffffffffffffffffffffffffffffffff1673ffffffffffffffffffffffffffffffffffffffff1681526020019081526020016000206000828254612e179190614712565b92505081905550816002600083815260200190815260200160002060006101000a81548173ffffffffffffffffffffffffffffffffffffffff021916908373ffffffffffffffffffffffffffffffffffffffff160217905550808273ffffffffffffffffffffffffffffffffffffffff16600073ffffffffffffffffffffffffffffffffffffffff167fddf252ad1be2c89b69c2b068fc378daa952ba7f163c4a11628f55a4df523b3ef60405160405180910390a4612ed860008383612af7565b5050565b828054612ee890613979565b90600052602060002090601f016020900481019282612f0a5760008555612f51565b82601f10612f2357803560ff1916838001178555612f51565b82800160010185558215612f51579182015b82811115612f50578235825591602001919060010190612f35565b5b509050612f5e9190612fe8565b5090565b828054612f6e90613979565b90600052602060002090601f016020900481019282612f905760008555612fd7565b82601f10612fa957805160ff1916838001178555612fd7565b82800160010185558215612fd7579182015b82811115612fd6578251825591602001919060010190612fbb565b5b509050612fe49190612fe8565b5090565b5b80821115613001576000816000905550600101612fe9565b5090565b6000604051905090565b600080fd5b600080fd5b60007fffffffff0000000000000000000000000000000000000000000000000000000082169050919050565b61304e81613019565b811461305957600080fd5b50565b60008135905061306b81613045565b92915050565b6000602082840312156130875761308661300f565b5b60006130958482850161305c565b91505092915050565b60008115159050919050565b6130b38161309e565b82525050565b60006020820190506130ce60008301846130aa565b92915050565b600081519050919050565b600082825260208201905092915050565b60005b8381101561310e5780820151818401526020810190506130f3565b8381111561311d576000848401525b50505050565b6000601f19601f8301169050919050565b600061313f826130d4565b61314981856130df565b93506131598185602086016130f0565b61316281613123565b840191505092915050565b600060208201905081810360008301526131878184613134565b905092915050565b6000819050919050565b6131a28161318f565b81146131ad57600080fd5b50565b6000813590506131bf81613199565b92915050565b6000602082840312156131db576131da61300f565b5b60006131e9848285016131b0565b91505092915050565b600073ffffffffffffffffffffffffffffffffffffffff82169050919050565b600061321d826131f2565b9050919050565b61322d81613212565b82525050565b60006020820190506132486000830184613224565b92915050565b61325781613212565b811461326257600080fd5b50565b6000813590506132748161324e565b92915050565b600080604083850312156132915761329061300f565b5b600061329f85828601613265565b92505060206132b0858286016131b0565b9150509250929050565b6000806000606084860312156132d3576132d261300f565b5b60006132e186828701613265565b93505060206132f286828701613265565b9250506040613303868287016131b0565b9150509250925092565b600080fd5b600080fd5b7f4e487b7100000000000000000000000000000000000000000000000000000000600052604160045260246000fd5b61334f82613123565b810181811067ffffffffffffffff8211171561336e5761336d613317565b5b80604052505050565b6000613381613005565b905061338d8282613346565b919050565b600067ffffffffffffffff8211156133ad576133ac613317565b5b6133b682613123565b9050602081019050919050565b82818337600083830152505050565b60006133e56133e084613392565b613377565b90508281526020810184848401111561340157613400613312565b5b61340c8482856133c3565b509392505050565b600082601f8301126134295761342861330d565b5b81356134398482602086016133d2565b91505092915050565b6000602082840312156134585761345761300f565b5b600082013567ffffffffffffffff81111561347657613475613014565b5b61348284828501613414565b91505092915050565b600081519050919050565b600082825260208201905092915050565b6000819050602082019050919050565b600082825260208201905092915050565b60006134d3826130d4565b6134dd81856134b7565b93506134ed8185602086016130f0565b6134f681613123565b840191505092915050565b600061350d83836134c8565b905092915050565b6000602082019050919050565b600061352d8261348b565b6135378185613496565b935083602082028501613549856134a7565b8060005b8581101561358557848403895281516135668582613501565b945061357183613515565b925060208a0199505060018101905061354d565b50829750879550505050505092915050565b600060208201905081810360008301526135b18184613522565b905092915050565b6000602082840312156135cf576135ce61300f565b5b60006135dd84828501613265565b91505092915050565b6135ef8161318f565b82525050565b600060208201905061360a60008301846135e6565b92915050565b600080fd5b600080fd5b60008083601f8401126136305761362f61330d565b5b8235905067ffffffffffffffff81111561364d5761364c613610565b5b60208301915083600182028301111561366957613668613615565b5b9250929050565b600080602083850312156136875761368661300f565b5b600083013567ffffffffffffffff8111156136a5576136a4613014565b5b6136b18582860161361a565b92509250509250929050565b600080600080604085870312156136d7576136d661300f565b5b600085013567ffffffffffffffff8111156136f5576136f4613014565b5b6137018782880161361a565b9450945050602085013567ffffffffffffffff81111561372457613723613014565b5b6137308782880161361a565b925092505092959194509250565b6000613749826131f2565b9050919050565b6137598161373e565b82525050565b60006020820190506137746000830184613750565b92915050565b6137838161309e565b811461378e57600080fd5b50565b6000813590506137a08161377a565b92915050565b600080604083850312156137bd576137bc61300f565b5b60006137cb85828601613265565b92505060206137dc85828601613791565b9150509250929050565b600067ffffffffffffffff82111561380157613800613317565b5b61380a82613123565b9050602081019050919050565b600061382a613825846137e6565b613377565b90508281526020810184848401111561384657613845613312565b5b6138518482856133c3565b509392505050565b600082601f83011261386e5761386d61330d565b5b813561387e848260208601613817565b91505092915050565b600080600080608085870312156138a1576138a061300f565b5b60006138af87828801613265565b94505060206138c087828801613265565b93505060406138d1878288016131b0565b925050606085013567ffffffffffffffff8111156138f2576138f1613014565b5b6138fe87828801613859565b91505092959194509250565b600080604083850312156139215761392061300f565b5b600061392f85828601613265565b925050602061394085828601613265565b9150509250929050565b7f4e487b7100000000000000000000000000000000000000000000000000000000600052602260045260246000fd5b6000600282049050600182168061399157607f821691505b602082108114156139a5576139a461394a565b5b50919050565b7f4552433732313a20617070726f76656420717565727920666f72206e6f6e657860008201527f697374656e7420746f6b656e0000000000000000000000000000000000000000602082015250565b6000613a07602c836130df565b9150613a12826139ab565b604082019050919050565b60006020820190508181036000830152613a36816139fa565b9050919050565b7f4552433732313a20617070726f76616c20746f2063757272656e74206f776e6560008201527f7200000000000000000000000000000000000000000000000000000000000000602082015250565b6000613a996021836130df565b9150613aa482613a3d565b604082019050919050565b60006020820190508181036000830152613ac881613a8c565b9050919050565b7f4552433732313a20617070726f76652063616c6c6572206973206e6f74206f7760008201527f6e6572206e6f7220617070726f76656420666f7220616c6c0000000000000000602082015250565b6000613b2b6038836130df565b9150613b3682613acf565b604082019050919050565b60006020820190508181036000830152613b5a81613b1e565b9050919050565b7f4552433732313a207472616e736665722063616c6c6572206973206e6f74206f60008201527f776e6572206e6f7220617070726f766564000000000000000000000000000000602082015250565b6000613bbd6031836130df565b9150613bc882613b61565b604082019050919050565b60006020820190508181036000830152613bec81613bb0565b9050919050565b600081905092915050565b50565b6000613c0e600083613bf3565b9150613c1982613bfe565b600082019050919050565b6000613c2f82613c01565b9150819050919050565b7f4661696c656420746f207769746864726177204d617469630000000000000000600082015250565b6000613c6f6018836130df565b9150613c7a82613c39565b602082019050919050565b60006020820190508181036000830152613c9e81613c62565b9050919050565b7f4552433732313a206f776e657220717565727920666f72206e6f6e657869737460008201527f656e7420746f6b656e0000000000000000000000000000000000000000000000602082015250565b6000613d016029836130df565b9150613d0c82613ca5565b604082019050919050565b60006020820190508181036000830152613d3081613cf4565b9050919050565b7f4e487b7100000000000000000000000000000000000000000000000000000000600052603260045260246000fd5b7f4e487b7100000000000000000000000000000000000000000000000000000000600052601160045260246000fd5b6000613da08261318f565b91507fffffffffffffffffffffffffffffffffffffffffffffffffffffffffffffffff821415613dd357613dd2613d66565b5b600182019050919050565b7f4552433732313a2062616c616e636520717565727920666f7220746865207a6560008201527f726f206164647265737300000000000000000000000000000000000000000000602082015250565b6000613e3a602a836130df565b9150613e4582613dde565b604082019050919050565b60006020820190508181036000830152613e6981613e2d565b9050919050565b600081905092915050565b6000613e878385613e70565b9350613e948385846133c3565b82840190509392505050565b6000613ead828486613e7b565b91508190509392505050565b6000613ec583856130df565b9350613ed28385846133c3565b613edb83613123565b840190509392505050565b60006060820190508181036000830152613f01818789613eb9565b90508181036020830152613f16818587613eb9565b9050613f256040830184613224565b9695505050505050565b7f45524337323155524953746f726167653a2055524920717565727920666f722060008201527f6e6f6e6578697374656e7420746f6b656e000000000000000000000000000000602082015250565b6000613f8b6031836130df565b9150613f9682613f2f565b604082019050919050565b60006020820190508181036000830152613fba81613f7e565b9050919050565b6000613fcc826130d4565b613fd68185613e70565b9350613fe68185602086016130f0565b80840191505092915050565b6000613ffe8285613fc1565b915061400a8284613fc1565b91508190509392505050565b60006020820190508181036000830152614031818486613eb9565b90509392505050565b7f4e6f7420656e6f756768204d6174696320706169640000000000000000000000600082015250565b60006140706015836130df565b915061407b8261403a565b602082019050919050565b6000602082019050818103600083015261409f81614063565b9050919050565b7f2e00000000000000000000000000000000000000000000000000000000000000600082015250565b60006140dc600183613e70565b91506140e7826140a6565b600182019050919050565b60008190508160005260206000209050919050565b6000815461411481613979565b61411e8186613e70565b94506001821660008114614139576001811461414a5761417d565b60ff1983168652818601935061417d565b614153856140f2565b60005b8381101561417557815481890152600182019150602081019050614156565b838801955050505b50505092915050565b6000614193828587613e7b565b915061419e826140cf565b91506141aa8284614107565b9150819050949350505050565b60006141c38286614107565b91506141cf8285613fc1565b91506141db8284614107565b9150819050949350505050565b7f7b226e616d65223a202200000000000000000000000000000000000000000000600082015250565b600061421e600a83613e70565b9150614229826141e8565b600a82019050919050565b7f222c20226465736372697074696f6e223a20224120646f6d61696e206f6e207460008201527f6865204e616d696e672053657276696365222c2022696d616765223a2022646160208201527f74613a696d6167652f7376672b786d6c3b6261736536342c0000000000000000604082015250565b60006142b6605883613e70565b91506142c182614234565b605882019050919050565b7f222c226c656e677468223a220000000000000000000000000000000000000000600082015250565b6000614302600c83613e70565b915061430d826142cc565b600c82019050919050565b7f227d000000000000000000000000000000000000000000000000000000000000600082015250565b600061434e600283613e70565b915061435982614318565b600282019050919050565b600061436f82614211565b915061437b8286613fc1565b9150614386826142a9565b91506143928285613fc1565b915061439d826142f5565b91506143a98284613fc1565b91506143b482614341565b9150819050949350505050565b7f646174613a6170706c69636174696f6e2f6a736f6e3b6261736536342c000000600082015250565b60006143f7601d83613e70565b9150614402826143c1565b601d82019050919050565b6000614418826143ea565b91506144248284613fc1565b915081905092915050565b600060408201905081810360008301526144498185613134565b90506144586020830184613224565b9392505050565b7f43616e2774207265747269657665206120707269636520666f722061207a657260008201527f6f206c656e67746820646f6d61696e0000000000000000000000000000000000602082015250565b60006144bb602f836130df565b91506144c68261445f565b604082019050919050565b600060208201905081810360008301526144ea816144ae565b9050919050565b6000604082019050818103600083015261450b8185613134565b9050818103602083015261451f8184613134565b90509392505050565b7f4552433732313a206f70657261746f7220717565727920666f72206e6f6e657860008201527f697374656e7420746f6b656e0000000000000000000000000000000000000000602082015250565b6000614584602c836130df565b915061458f82614528565b604082019050919050565b600060208201905081810360008301526145b381614577565b9050919050565b7f4552433732313a207472616e736665722066726f6d20696e636f72726563742060008201527f6f776e6572000000000000000000000000000000000000000000000000000000602082015250565b60006146166025836130df565b9150614621826145ba565b604082019050919050565b6000602082019050818103600083015261464581614609565b9050919050565b7f4552433732313a207472616e7366657220746f20746865207a65726f2061646460008201527f7265737300000000000000000000000000000000000000000000000000000000602082015250565b60006146a86024836130df565b91506146b38261464c565b604082019050919050565b600060208201905081810360008301526146d78161469b565b9050919050565b60006146e98261318f565b91506146f48361318f565b92508282101561470757614706613d66565b5b828203905092915050565b600061471d8261318f565b91506147288361318f565b9250827fffffffffffffffffffffffffffffffffffffffffffffffffffffffffffffffff0382111561475d5761475c613d66565b5b828201905092915050565b600060608201905081810360008301526147828186613134565b905061479160208301856135e6565b81810360408301526147a38184613134565b9050949350505050565b7f4552433732313a20617070726f766520746f2063616c6c657200000000000000600082015250565b60006147e36019836130df565b91506147ee826147ad565b602082019050919050565b60006020820190508181036000830152614812816147d6565b9050919050565b7f4552433732313a207472616e7366657220746f206e6f6e20455243373231526560008201527f63656976657220696d706c656d656e7465720000000000000000000000000000602082015250565b60006148756032836130df565b915061488082614819565b604082019050919050565b600060208201905081810360008301526148a481614868565b9050919050565b7f4552433732314d657461646174613a2055524920717565727920666f72206e6f60008201527f6e6578697374656e7420746f6b656e0000000000000000000000000000000000602082015250565b6000614907602f836130df565b9150614912826148ab565b604082019050919050565b60006020820190508181036000830152614936816148fa565b9050919050565b7f4e487b7100000000000000000000000000000000000000000000000000000000600052601260045260246000fd5b60006149778261318f565b91506149828361318f565b9250826149925761499161493d565b5b828204905092915050565b60006149a88261318f565b91506149b38361318f565b9250826149c3576149c261493d565b5b828206905092915050565b600060608201905081810360008301526149e88186613134565b905081810360208301526149fc8185613134565b9050614a0b60408301846135e6565b949350505050565b6000614a1e8261318f565b9150614a298361318f565b9250817fffffffffffffffffffffffffffffffffffffffffffffffffffffffffffffffff0483118215151615614a6257614a61613d66565b5b828202905092915050565b7f45524337323155524953746f726167653a2055524920736574206f66206e6f6e60008201527f6578697374656e7420746f6b656e000000000000000000000000000000000000602082015250565b6000614ac9602e836130df565b9150614ad482614a6d565b604082019050919050565b60006020820190508181036000830152614af881614abc565b9050919050565b600081519050919050565b600082825260208201905092915050565b6000614b2682614aff565b614b308185614b0a565b9350614b408185602086016130f0565b614b4981613123565b840191505092915050565b6000608082019050614b696000830187613224565b614b766020830186613224565b614b8360408301856135e6565b8181036060830152614b958184614b1b565b905095945050505050565b600081519050614baf81613045565b92915050565b600060208284031215614bcb57614bca61300f565b5b6000614bd984828501614ba0565b91505092915050565b7f4552433732313a206d696e7420746f20746865207a65726f2061646472657373600082015250565b6000614c186020836130df565b9150614c2382614be2565b602082019050919050565b60006020820190508181036000830152614c4781614c0b565b9050919050565b7f4552433732313a20746f6b656e20616c7265616479206d696e74656400000000600082015250565b6000614c84601c836130df565b9150614c8f82614c4e565b602082019050919050565b60006020820190508181036000830152614cb381614c77565b905091905056fe47657474696e6720616c6c20706c616e6574732066726f6d20636f6e74726163740a2d2d2d2d2d2d2d2d2d2d2d2d2d2d2d2d2d2d2d2d2d2d2d2d2d2d2d2d2d2d2d2d2d2d2d2d2d2d2d2d2d2d2d2d2d2d2d2d2d2d2d2d2d2d2d2d2d2d2d2d2d2d2d2d2d2d2d2d2d2d2d2d2d2d2d2d2d2d2d2d2d2d2d2d2d2d2d2d2d2d2d2d2d2d2d2d2d2d2d2d2d2d2d2d2d2d2d2d2d2d2d2d0a4142434445464748494a4b4c4d4e4f505152535455565758595a6162636465666768696a6b6c6d6e6f707172737475767778797a303132333435363738392b2f5265676973746572696e67202573206f6e2074686520636f6e7472616374207769746820746f6b656e4944202564a26469706673582212208c328fbd0031b064857428378e97db39954714148f5a93f91ae5669730e4940b64736f6c634300080a00333c73766720786d6c6e733d22687474703a2f2f7777772e77332e6f72672f323030302f737667222077696474683d2232373022206865696768743d22323730222066696c6c3d226e6f6e65223e3c706174682066696c6c3d2275726c282342292220643d224d302030683237307632373048307a222f3e3c646566733e3c66696c7465722069643d22412220636f6c6f722d696e746572706f6c6174696f6e2d66696c746572733d2273524742222066696c746572556e6974733d227573657253706163654f6e55736522206865696768743d22323730222077696474683d22323730223e3c666544726f70536861646f772064783d2230222064793d22312220737464446576696174696f6e3d22322220666c6f6f642d6f7061636974793d222e323235222077696474683d223230302522206865696768743d2232303025222f3e3c2f66696c7465723e3c2f646566733e3c7061746820643d224d37322e3836332034322e393439632d2e3636382d2e3338372d312e3432362d2e35392d322e3139372d2e3539732d312e3532392e3230342d322e3139372e35396c2d31302e30383120362e3033322d362e383520332e3933342d31302e30383120362e303332632d2e3636382e3338372d312e3432362e35392d322e3139372e3539732d312e3532392d2e3230342d322e3139372d2e35396c2d382e3031332d342e37323161342e353220342e35322030203020312d312e3538392d312e363136632d2e3338342d2e3636352d2e3539342d312e3431382d2e3630382d322e313837762d392e3331632d2e3031332d2e3737352e3138352d312e3533382e3537322d322e32303861342e323520342e323520302030203120312e3632352d312e3539356c372e3838342d342e3539632e3636382d2e33383720312e3432362d2e353920322e3139372d2e353973312e3532392e32303420322e3139372e35396c372e38383420342e353961342e353220342e353220302030203120312e35383920312e363136632e3338342e3636352e35393420312e3431382e36303820322e31383776362e3033326c362e38352d342e303635762d362e303332632e3031332d2e3737352d2e3138352d312e3533382d2e3537322d322e32303861342e323520342e32352030203020302d312e3632352d312e3539354c34312e3435362032342e3539632d2e3636382d2e3338372d312e3432362d2e35392d322e3139372d2e3539732d312e3532392e3230342d322e3139372e35396c2d31342e38363420382e36353561342e323520342e32352030203020302d312e36323520312e353935632d2e3338372e36372d2e35383520312e3433342d2e35373220322e3230387631372e343431632d2e3031332e3737352e31383520312e3533382e35373220322e32303861342e323520342e323520302030203020312e36323520312e3539356c31342e38363420382e363535632e3636382e33383720312e3432362e353920322e3139372e353973312e3532392d2e32303420322e3139372d2e35396c31302e3038312d352e39303120362e38352d342e3036352031302e3038312d352e393031632e3636382d2e33383720312e3432362d2e353920322e3139372d2e353973312e3532392e32303420322e3139372e35396c372e38383420342e353961342e353220342e353220302030203120312e35383920312e363136632e3338342e3636352e35393420312e3431382e36303820322e31383776392e333131632e3031332e3737352d2e31383520312e3533382d2e35373220322e32303861342e323520342e32352030203020312d312e36323520312e3539356c2d372e38383420342e373231632d2e3636382e3338372d312e3432362e35392d322e3139372e3539732d312e3532392d2e3230342d322e3139372d2e35396c2d372e3838342d342e353961342e353220342e35322030203020312d312e3538392d312e363136632d2e3338352d2e3636352d2e3539342d312e3431382d2e3630382d322e313837762d362e3033326c2d362e383520342e30363576362e303332632d2e3031332e3737352e31383520312e3533382e35373220322e32303861342e323520342e323520302030203020312e36323520312e3539356c31342e38363420382e363535632e3636382e33383720312e3432362e353920322e3139372e353973312e3532392d2e32303420322e3139372d2e35396c31342e3836342d382e363535632e3635372d2e33393420312e3230342d2e393520312e3538392d312e363136732e3539342d312e3431382e3630392d322e3138375635352e353338632e3031332d2e3737352d2e3138352d312e3533382d2e3537322d322e32303861342e323520342e32352030203020302d312e3632352d312e3539356c2d31342e3939332d382e3738367a222066696c6c3d2223666666222f3e3c646566733e3c6c696e6561724772616469656e742069643d2242222078313d2230222079313d2230222078323d22323730222079323d2232373022206772616469656e74556e6974733d227573657253706163654f6e557365223e3c73746f702073746f702d636f6c6f723d2223393030222f3e3c73746f70206f66667365743d2231222073746f702d636f6c6f723d2223366133323966222073746f702d6f7061636974793d222e3939222f3e3c2f6c696e6561724772616469656e743e3c2f646566733e3c7465787420783d2233322e352220793d223233312220666f6e742d73697a653d223230222066696c6c3d2223666666222066696c7465723d2275726c282341292220666f6e742d66616d696c793d22506c7573204a616b617274612053616e732c44656a6156752053616e732c4e6f746f20436f6c6f7220456d6f6a692c4170706c6520436f6c6f7220456d6f6a692c73616e732d73657269662220666f6e742d7765696768743d22626f6c64223e416e64726f6d6564612047616c61787920506c616e6574204e616d696e672053657276696365",
  "linkReferences": {},
  "deployedLinkReferences": {}
}