{
  "_format": "hh-sol-artifact-1",
  "contractName": "Domains",
  "sourceName": "contracts/Domains.sol",
  "abi": [
    {
      "inputs": [
        {
          "internalType": "string",
          "name": "_tld",
          "type": "string"
        }
      ],
      "stateMutability": "payable",
      "type": "constructor"
    },
    {
      "inputs": [],
      "name": "AlreadyRegistered",
      "type": "error"
    },
    {
      "inputs": [
        {
          "internalType": "string",
          "name": "name",
          "type": "string"
        }
      ],
      "name": "InvalidName",
      "type": "error"
    },
    {
      "inputs": [],
      "name": "Unauthorized",
      "type": "error"
    },
    {
      "anonymous": false,
      "inputs": [
        {
          "indexed": true,
          "internalType": "address",
          "name": "owner",
          "type": "address"
        },
        {
          "indexed": true,
          "internalType": "address",
          "name": "approved",
          "type": "address"
        },
        {
          "indexed": true,
          "internalType": "uint256",
          "name": "tokenId",
          "type": "uint256"
        }
      ],
      "name": "Approval",
      "type": "event"
    },
    {
      "anonymous": false,
      "inputs": [
        {
          "indexed": true,
          "internalType": "address",
          "name": "owner",
          "type": "address"
        },
        {
          "indexed": true,
          "internalType": "address",
          "name": "operator",
          "type": "address"
        },
        {
          "indexed": false,
          "internalType": "bool",
          "name": "approved",
          "type": "bool"
        }
      ],
      "name": "ApprovalForAll",
      "type": "event"
    },
    {
      "anonymous": false,
      "inputs": [
        {
          "indexed": true,
          "internalType": "address",
          "name": "from",
          "type": "address"
        },
        {
          "indexed": true,
          "internalType": "address",
          "name": "to",
          "type": "address"
        },
        {
          "indexed": true,
          "internalType": "uint256",
          "name": "tokenId",
          "type": "uint256"
        }
      ],
      "name": "Transfer",
      "type": "event"
    },
    {
      "inputs": [
        {
          "internalType": "address",
          "name": "to",
          "type": "address"
        },
        {
          "internalType": "uint256",
          "name": "tokenId",
          "type": "uint256"
        }
      ],
      "name": "approve",
      "outputs": [],
      "stateMutability": "nonpayable",
      "type": "function"
    },
    {
      "inputs": [
        {
          "internalType": "address",
          "name": "owner",
          "type": "address"
        }
      ],
      "name": "balanceOf",
      "outputs": [
        {
          "internalType": "uint256",
          "name": "",
          "type": "uint256"
        }
      ],
      "stateMutability": "view",
      "type": "function"
    },
    {
      "inputs": [
        {
          "internalType": "string",
          "name": "",
          "type": "string"
        }
      ],
      "name": "colours",
      "outputs": [
        {
          "internalType": "string",
          "name": "",
          "type": "string"
        }
      ],
      "stateMutability": "view",
      "type": "function"
    },
    {
      "inputs": [
        {
          "internalType": "string",
          "name": "name",
          "type": "string"
        }
      ],
      "name": "getAddress",
      "outputs": [
        {
          "internalType": "address",
          "name": "",
          "type": "address"
        }
      ],
      "stateMutability": "view",
      "type": "function"
    },
    {
      "inputs": [],
      "name": "getAllPlanets",
      "outputs": [
        {
          "internalType": "string[]",
          "name": "",
          "type": "string[]"
        }
      ],
      "stateMutability": "view",
      "type": "function"
    },
    {
      "inputs": [
        {
          "internalType": "uint256",
          "name": "tokenId",
          "type": "uint256"
        }
      ],
      "name": "getApproved",
      "outputs": [
        {
          "internalType": "address",
          "name": "",
          "type": "address"
        }
      ],
      "stateMutability": "view",
      "type": "function"
    },
    {
      "inputs": [
        {
          "internalType": "string",
          "name": "name",
          "type": "string"
        }
      ],
      "name": "getColour",
      "outputs": [
        {
          "internalType": "string",
          "name": "",
          "type": "string"
        }
      ],
      "stateMutability": "view",
      "type": "function"
    },
    {
      "inputs": [
        {
          "internalType": "address",
          "name": "owner",
          "type": "address"
        },
        {
          "internalType": "address",
          "name": "operator",
          "type": "address"
        }
      ],
      "name": "isApprovedForAll",
      "outputs": [
        {
          "internalType": "bool",
          "name": "",
          "type": "bool"
        }
      ],
      "stateMutability": "view",
      "type": "function"
    },
    {
      "inputs": [],
      "name": "isOwner",
      "outputs": [
        {
          "internalType": "bool",
          "name": "",
          "type": "bool"
        }
      ],
      "stateMutability": "view",
      "type": "function"
    },
    {
      "inputs": [],
      "name": "name",
      "outputs": [
        {
          "internalType": "string",
          "name": "",
          "type": "string"
        }
      ],
      "stateMutability": "view",
      "type": "function"
    },
    {
      "inputs": [
        {
          "internalType": "uint256",
          "name": "",
          "type": "uint256"
        }
      ],
      "name": "names",
      "outputs": [
        {
          "internalType": "string",
          "name": "",
          "type": "string"
        }
      ],
      "stateMutability": "view",
      "type": "function"
    },
    {
      "inputs": [],
      "name": "owner",
      "outputs": [
        {
          "internalType": "address payable",
          "name": "",
          "type": "address"
        }
      ],
      "stateMutability": "view",
      "type": "function"
    },
    {
      "inputs": [
        {
          "internalType": "uint256",
          "name": "tokenId",
          "type": "uint256"
        }
      ],
      "name": "ownerOf",
      "outputs": [
        {
          "internalType": "address",
          "name": "",
          "type": "address"
        }
      ],
      "stateMutability": "view",
      "type": "function"
    },
    {
      "inputs": [
        {
          "internalType": "string",
          "name": "",
          "type": "string"
        }
      ],
      "name": "planets",
      "outputs": [
        {
          "internalType": "address",
          "name": "",
          "type": "address"
        }
      ],
      "stateMutability": "view",
      "type": "function"
    },
    {
      "inputs": [
        {
          "internalType": "string",
          "name": "name",
          "type": "string"
        }
      ],
      "name": "price",
      "outputs": [
        {
          "internalType": "uint256",
          "name": "",
          "type": "uint256"
        }
      ],
      "stateMutability": "pure",
      "type": "function"
    },
    {
      "inputs": [
        {
          "internalType": "string",
          "name": "name",
          "type": "string"
        }
      ],
      "name": "register",
      "outputs": [],
      "stateMutability": "payable",
      "type": "function"
    },
    {
      "inputs": [
        {
          "internalType": "address",
          "name": "from",
          "type": "address"
        },
        {
          "internalType": "address",
          "name": "to",
          "type": "address"
        },
        {
          "internalType": "uint256",
          "name": "tokenId",
          "type": "uint256"
        }
      ],
      "name": "safeTransferFrom",
      "outputs": [],
      "stateMutability": "nonpayable",
      "type": "function"
    },
    {
      "inputs": [
        {
          "internalType": "address",
          "name": "from",
          "type": "address"
        },
        {
          "internalType": "address",
          "name": "to",
          "type": "address"
        },
        {
          "internalType": "uint256",
          "name": "tokenId",
          "type": "uint256"
        },
        {
          "internalType": "bytes",
          "name": "_data",
          "type": "bytes"
        }
      ],
      "name": "safeTransferFrom",
      "outputs": [],
      "stateMutability": "nonpayable",
      "type": "function"
    },
    {
      "inputs": [
        {
          "internalType": "address",
          "name": "operator",
          "type": "address"
        },
        {
          "internalType": "bool",
          "name": "approved",
          "type": "bool"
        }
      ],
      "name": "setApprovalForAll",
      "outputs": [],
      "stateMutability": "nonpayable",
      "type": "function"
    },
    {
      "inputs": [
        {
          "internalType": "string",
          "name": "name",
          "type": "string"
        },
        {
          "internalType": "string",
          "name": "colour",
          "type": "string"
        }
      ],
      "name": "setColour",
      "outputs": [],
      "stateMutability": "nonpayable",
      "type": "function"
    },
    {
      "inputs": [
        {
          "internalType": "bytes4",
          "name": "interfaceId",
          "type": "bytes4"
        }
      ],
      "name": "supportsInterface",
      "outputs": [
        {
          "internalType": "bool",
          "name": "",
          "type": "bool"
        }
      ],
      "stateMutability": "view",
      "type": "function"
    },
    {
      "inputs": [],
      "name": "symbol",
      "outputs": [
        {
          "internalType": "string",
          "name": "",
          "type": "string"
        }
      ],
      "stateMutability": "view",
      "type": "function"
    },
    {
      "inputs": [],
      "name": "tld",
      "outputs": [
        {
          "internalType": "string",
          "name": "",
          "type": "string"
        }
      ],
      "stateMutability": "view",
      "type": "function"
    },
    {
      "inputs": [
        {
          "internalType": "uint256",
          "name": "tokenId",
          "type": "uint256"
        }
      ],
      "name": "tokenURI",
      "outputs": [
        {
          "internalType": "string",
          "name": "",
          "type": "string"
        }
      ],
      "stateMutability": "view",
      "type": "function"
    },
    {
      "inputs": [
        {
          "internalType": "address",
          "name": "from",
          "type": "address"
        },
        {
          "internalType": "address",
          "name": "to",
          "type": "address"
        },
        {
          "internalType": "uint256",
          "name": "tokenId",
          "type": "uint256"
        }
      ],
      "name": "transferFrom",
      "outputs": [],
      "stateMutability": "nonpayable",
      "type": "function"
    },
    {
      "inputs": [
        {
          "internalType": "string",
          "name": "name",
          "type": "string"
        }
      ],
      "name": "valid",
      "outputs": [
        {
          "internalType": "bool",
          "name": "",
          "type": "bool"
        }
      ],
      "stateMutability": "pure",
      "type": "function"
    },
    {
      "inputs": [],
      "name": "withdraw",
      "outputs": [],
      "stateMutability": "nonpayable",
      "type": "function"
    }
  ],
  "bytecode": "0x6080604052604051806108a0016040528061086881526020016200535761086891396008908051906020019062000038929190620002ac565b506040518060400160405280600d81526020017f3c2f746578743e3c2f7376673e000000000000000000000000000000000000008152506009908051906020019062000086929190620002ac565b5060405162005be538038062005be58339818101604052810190620000ac9190620004f9565b60405180606001604052806026815260200162005bbf602691396040518060400160405280600381526020017f414e530000000000000000000000000000000000000000000000000000000000815250816000908051906020019062000114929190620002ac565b5080600190805190602001906200012d929190620002ac565b50505033600b60006101000a81548173ffffffffffffffffffffffffffffffffffffffff021916908373ffffffffffffffffffffffffffffffffffffffff16021790555080600a908051906020019062000189929190620002ac565b50620001d66040518060400160405280601881526020017f2573206e616d652073657276696365206465706c6f796564000000000000000081525082620001dd60201b62001b171760201c565b5062000647565b6200027f8282604051602401620001f6929190620005a7565b6040516020818303038152906040527f4b5c4277000000000000000000000000000000000000000000000000000000007bffffffffffffffffffffffffffffffffffffffffffffffffffffffff19166020820180517bffffffffffffffffffffffffffffffffffffffffffffffffffffffff83818316178352505050506200028360201b60201c565b5050565b60008151905060006a636f6e736f6c652e6c6f679050602083016000808483855afa5050505050565b828054620002ba9062000611565b90600052602060002090601f016020900481019282620002de57600085556200032a565b82601f10620002f957805160ff19168380011785556200032a565b828001600101855582156200032a579182015b82811115620003295782518255916020019190600101906200030c565b5b5090506200033991906200033d565b5090565b5b80821115620003585760008160009055506001016200033e565b5090565b6000604051905090565b600080fd5b600080fd5b600080fd5b600080fd5b6000601f19601f8301169050919050565b7f4e487b7100000000000000000000000000000000000000000000000000000000600052604160045260246000fd5b620003c5826200037a565b810181811067ffffffffffffffff82111715620003e757620003e66200038b565b5b80604052505050565b6000620003fc6200035c565b90506200040a8282620003ba565b919050565b600067ffffffffffffffff8211156200042d576200042c6200038b565b5b62000438826200037a565b9050602081019050919050565b60005b838110156200046557808201518184015260208101905062000448565b8381111562000475576000848401525b50505050565b6000620004926200048c846200040f565b620003f0565b905082815260208101848484011115620004b157620004b062000375565b5b620004be84828562000445565b509392505050565b600082601f830112620004de57620004dd62000370565b5b8151620004f08482602086016200047b565b91505092915050565b60006020828403121562000512576200051162000366565b5b600082015167ffffffffffffffff8111156200053357620005326200036b565b5b6200054184828501620004c6565b91505092915050565b600081519050919050565b600082825260208201905092915050565b600062000573826200054a565b6200057f818562000555565b93506200059181856020860162000445565b6200059c816200037a565b840191505092915050565b60006040820190508181036000830152620005c3818562000566565b90508181036020830152620005d9818462000566565b90509392505050565b7f4e487b7100000000000000000000000000000000000000000000000000000000600052602260045260246000fd5b600060028204905060018216806200062a57607f821691505b60208210811415620006415762000640620005e2565b5b50919050565b614d0080620006576000396000f3fe60806040526004361061019c5760003560e01c8063714ed891116100ec578063a22cb4651161008a578063c87b56dd11610064578063c87b56dd14610612578063e985e9c51461064f578063f2c298be1461068c578063fe2c6198146106a85761019c565b8063a22cb46514610583578063b88d4fde146105ac578063bf40fac1146105d55761019c565b80638da5cb5b116100c65780638da5cb5b146104c55780638f32d59b146104f057806395d89b411461051b5780639791c097146105465761019c565b8063714ed891146104225780637fb6f4bc1461045f578063857895b5146104885761019c565b80633ccfd60b116101595780635f845102116101335780635f845102146103405780636352211e1461037d5780636a23befb146103ba57806370a08231146103e55761019c565b80633ccfd60b146102c357806342842e0e146102da5780634622ab03146103035761019c565b806301ffc9a7146101a157806306fdde03146101de578063081812fc14610209578063095ea7b31461024657806323b872dd1461026f5780632d55143214610298575b600080fd5b3480156101ad57600080fd5b506101c860048036038101906101c39190612ff9565b6106e5565b6040516101d59190613041565b60405180910390f35b3480156101ea57600080fd5b506101f36107c7565b60405161020091906130f5565b60405180910390f35b34801561021557600080fd5b50610230600480360381019061022b919061314d565b610859565b60405161023d91906131bb565b60405180910390f35b34801561025257600080fd5b5061026d60048036038101906102689190613202565b6108de565b005b34801561027b57600080fd5b5061029660048036038101906102919190613242565b6109f6565b005b3480156102a457600080fd5b506102ad610a56565b6040516102ba91906130f5565b60405180910390f35b3480156102cf57600080fd5b506102d8610ae4565b005b3480156102e657600080fd5b5061030160048036038101906102fc9190613242565b610baa565b005b34801561030f57600080fd5b5061032a6004803603810190610325919061314d565b610bca565b60405161033791906130f5565b60405180910390f35b34801561034c57600080fd5b50610367600480360381019061036291906133ca565b610c6a565b60405161037491906131bb565b60405180910390f35b34801561038957600080fd5b506103a4600480360381019061039f919061314d565b610cb3565b6040516103b191906131bb565b60405180910390f35b3480156103c657600080fd5b506103cf610d65565b6040516103dc919061351f565b60405180910390f35b3480156103f157600080fd5b5061040c60048036038101906104079190613541565b610f26565b604051610419919061357d565b60405180910390f35b34801561042e57600080fd5b50610449600480360381019061044491906135f8565b610fde565b60405161045691906130f5565b60405180910390f35b34801561046b57600080fd5b5061048660048036038101906104819190613645565b611091565b005b34801561049457600080fd5b506104af60048036038101906104aa91906133ca565b61116c565b6040516104bc91906130f5565b60405180910390f35b3480156104d157600080fd5b506104da611222565b6040516104e791906136e7565b60405180910390f35b3480156104fc57600080fd5b50610505611248565b6040516105129190613041565b60405180910390f35b34801561052757600080fd5b506105306112a0565b60405161053d91906130f5565b60405180910390f35b34801561055257600080fd5b5061056d600480360381019061056891906135f8565b611332565b60405161057a9190613041565b60405180910390f35b34801561058f57600080fd5b506105aa60048036038101906105a5919061372e565b6113e6565b005b3480156105b857600080fd5b506105d360048036038101906105ce919061380f565b6113fc565b005b3480156105e157600080fd5b506105fc60048036038101906105f791906135f8565b61145e565b60405161060991906131bb565b60405180910390f35b34801561061e57600080fd5b506106396004803603810190610634919061314d565b6114a9565b60405161064691906130f5565b60405180910390f35b34801561065b57600080fd5b5061067660048036038101906106719190613892565b6115fb565b6040516106839190613041565b60405180910390f35b6106a660048036038101906106a191906135f8565b61168f565b005b3480156106b457600080fd5b506106cf60048036038101906106ca91906135f8565b611a3e565b6040516106dc919061357d565b60405180910390f35b60007f80ac58cd000000000000000000000000000000000000000000000000000000007bffffffffffffffffffffffffffffffffffffffffffffffffffffffff1916827bffffffffffffffffffffffffffffffffffffffffffffffffffffffff191614806107b057507f5b5e139f000000000000000000000000000000000000000000000000000000007bffffffffffffffffffffffffffffffffffffffffffffffffffffffff1916827bffffffffffffffffffffffffffffffffffffffffffffffffffffffff1916145b806107c057506107bf82611bb3565b5b9050919050565b6060600080546107d690613901565b80601f016020809104026020016040519081016040528092919081815260200182805461080290613901565b801561084f5780601f106108245761010080835404028352916020019161084f565b820191906000526020600020905b81548152906001019060200180831161083257829003601f168201915b5050505050905090565b600061086482611c1d565b6108a3576040517f08c379a000000000000000000000000000000000000000000000000000000000815260040161089a906139a5565b60405180910390fd5b6004600083815260200190815260200160002060009054906101000a900473ffffffffffffffffffffffffffffffffffffffff169050919050565b60006108e982610cb3565b90508073ffffffffffffffffffffffffffffffffffffffff168373ffffffffffffffffffffffffffffffffffffffff16141561095a576040517f08c379a000000000000000000000000000000000000000000000000000000000815260040161095190613a37565b60405180910390fd5b8073ffffffffffffffffffffffffffffffffffffffff16610979611c89565b73ffffffffffffffffffffffffffffffffffffffff1614806109a857506109a7816109a2611c89565b6115fb565b5b6109e7576040517f08c379a00000000000000000000000000000000000000000000000000000000081526004016109de90613ac9565b60405180910390fd5b6109f18383611c91565b505050565b610a07610a01611c89565b82611d4a565b610a46576040517f08c379a0000000000000000000000000000000000000000000000000000000008152600401610a3d90613b5b565b60405180910390fd5b610a51838383611e28565b505050565b600a8054610a6390613901565b80601f0160208091040260200160405190810160405280929190818152602001828054610a8f90613901565b8015610adc5780601f10610ab157610100808354040283529160200191610adc565b820191906000526020600020905b815481529060010190602001808311610abf57829003601f168201915b505050505081565b610aec611248565b610af557600080fd5b600047905060003373ffffffffffffffffffffffffffffffffffffffff1682604051610b2090613bac565b60006040518083038185875af1925050503d8060008114610b5d576040519150601f19603f3d011682016040523d82523d6000602084013e610b62565b606091505b5050905080610ba6576040517f08c379a0000000000000000000000000000000000000000000000000000000008152600401610b9d90613c0d565b60405180910390fd5b5050565b610bc5838383604051806020016040528060008152506113fc565b505050565b600e6020528060005260406000206000915090508054610be990613901565b80601f0160208091040260200160405190810160405280929190818152602001828054610c1590613901565b8015610c625780601f10610c3757610100808354040283529160200191610c62565b820191906000526020600020905b815481529060010190602001808311610c4557829003601f168201915b505050505081565b600c818051602081018201805184825260208301602085012081835280955050505050506000915054906101000a900473ffffffffffffffffffffffffffffffffffffffff1681565b6000806002600084815260200190815260200160002060009054906101000a900473ffffffffffffffffffffffffffffffffffffffff169050600073ffffffffffffffffffffffffffffffffffffffff168173ffffffffffffffffffffffffffffffffffffffff161415610d5c576040517f08c379a0000000000000000000000000000000000000000000000000000000008152600401610d5390613c9f565b60405180910390fd5b80915050919050565b6060610d88604051806060016040528060218152602001614bca6021913961208f565b6000610d946007612128565b67ffffffffffffffff811115610dad57610dac61329f565b5b604051908082528060200260200182016040528015610de057816020015b6060815260200190600190039081610dcb5790505b50905060005b610df06007612128565b811015610f1e57600e60008281526020019081526020016000208054610e1590613901565b80601f0160208091040260200160405190810160405280929190818152602001828054610e4190613901565b8015610e8e5780601f10610e6357610100808354040283529160200191610e8e565b820191906000526020600020905b815481529060010190602001808311610e7157829003601f168201915b5050505050828281518110610ea657610ea5613cbf565b5b6020026020010181905250610f0b6040518060400160405280601781526020017f4e616d6520666f7220746f6b656e20256420697320257300000000000000000081525082848481518110610efe57610efd613cbf565b5b6020026020010151612136565b8080610f1690613d1d565b915050610de6565b508091505090565b60008073ffffffffffffffffffffffffffffffffffffffff168273ffffffffffffffffffffffffffffffffffffffff161415610f97576040517f08c379a0000000000000000000000000000000000000000000000000000000008152600401610f8e90613dd8565b60405180910390fd5b600360008373ffffffffffffffffffffffffffffffffffffffff1673ffffffffffffffffffffffffffffffffffffffff168152602001908152602001600020549050919050565b6060600d8383604051610ff2929190613e28565b9081526020016040518091039020805461100b90613901565b80601f016020809104026020016040519081016040528092919081815260200182805461103790613901565b80156110845780601f1061105957610100808354040283529160200191611084565b820191906000526020600020905b81548152906001019060200180831161106757829003601f168201915b5050505050905092915050565b3373ffffffffffffffffffffffffffffffffffffffff16600c85856040516110ba929190613e28565b908152602001604051809103902060009054906101000a900473ffffffffffffffffffffffffffffffffffffffff1673ffffffffffffffffffffffffffffffffffffffff1614611136576040517f82b4290000000000000000000000000000000000000000000000000000000000815260040160405180910390fd5b8181600d868660405161114a929190613e28565b90815260200160405180910390209190611165929190612e64565b5050505050565b600d8180516020810182018051848252602083016020850120818352809550505050505060009150905080546111a190613901565b80601f01602080910402602001604051908101604052809291908181526020018280546111cd90613901565b801561121a5780601f106111ef5761010080835404028352916020019161121a565b820191906000526020600020905b8154815290600101906020018083116111fd57829003601f168201915b505050505081565b600b60009054906101000a900473ffffffffffffffffffffffffffffffffffffffff1681565b6000600b60009054906101000a900473ffffffffffffffffffffffffffffffffffffffff1673ffffffffffffffffffffffffffffffffffffffff163373ffffffffffffffffffffffffffffffffffffffff1614905090565b6060600180546112af90613901565b80601f01602080910402602001604051908101604052809291908181526020018280546112db90613901565b80156113285780601f106112fd57610100808354040283529160200191611328565b820191906000526020600020905b81548152906001019060200180831161130b57829003601f168201915b5050505050905090565b6000600361138384848080601f016020809104026020016040519081016040528093929190818152602001838380828437600081840152601f19601f820116905080830192505050505050506121d5565b101580156113de5750600c6113db84848080601f016020809104026020016040519081016040528093929190818152602001838380828437600081840152601f19601f820116905080830192505050505050506121d5565b11155b905092915050565b6113f86113f1611c89565b838361238a565b5050565b61140d611407611c89565b83611d4a565b61144c576040517f08c379a000000000000000000000000000000000000000000000000000000000815260040161144390613b5b565b60405180910390fd5b611458848484846124f7565b50505050565b6000600c8383604051611472929190613e28565b908152602001604051809103902060009054906101000a900473ffffffffffffffffffffffffffffffffffffffff16905092915050565b60606114b482611c1d565b6114f3576040517f08c379a00000000000000000000000000000000000000000000000000000000081526004016114ea90613eb3565b60405180910390fd5b600060066000848152602001908152602001600020805461151390613901565b80601f016020809104026020016040519081016040528092919081815260200182805461153f90613901565b801561158c5780601f106115615761010080835404028352916020019161158c565b820191906000526020600020905b81548152906001019060200180831161156f57829003601f168201915b50505050509050600061159d612553565b90506000815114156115b35781925050506115f6565b6000825111156115e85780826040516020016115d0929190613f04565b604051602081830303815290604052925050506115f6565b6115f18461256a565b925050505b919050565b6000600560008473ffffffffffffffffffffffffffffffffffffffff1673ffffffffffffffffffffffffffffffffffffffff16815260200190815260200160002060008373ffffffffffffffffffffffffffffffffffffffff1673ffffffffffffffffffffffffffffffffffffffff16815260200190815260200160002060009054906101000a900460ff16905092915050565b600073ffffffffffffffffffffffffffffffffffffffff16600c83836040516116b9929190613e28565b908152602001604051809103902060009054906101000a900473ffffffffffffffffffffffffffffffffffffffff1673ffffffffffffffffffffffffffffffffffffffff1614611735576040517f3a81d6fc00000000000000000000000000000000000000000000000000000000815260040160405180910390fd5b61173f8282611332565b6117825781816040517f7f19f48d000000000000000000000000000000000000000000000000000000008152600401611779929190613f55565b60405180910390fd5b600061178e8383611a3e565b9050803410156117d3576040517f08c379a00000000000000000000000000000000000000000000000000000000081526004016117ca90613fc5565b60405180910390fd5b60008383600a6040516020016117eb939291906140c5565b604051602081830303815290604052905060006008826009604051602001611815939291906140f6565b604051602081830303815290604052905060006118326007612128565b9050600061188387878080601f016020809104026020016040519081016040528093929190818152602001838380828437600081840152601f19601f820116905080830192505050505050506121d5565b9050600061189082612611565b90506118b56040518060600160405280602e8152602001614c9d602e91398685612772565b60006118eb866118c487612811565b846040516020016118d7939291906142a3565b604051602081830303815290604052612811565b9050600081604051602001611900919061434c565b6040516020818303038152906040529050611932604051806060016040528060398152602001614beb6039913961208f565b6119716040518060400160405280600e81526020017f46696e616c20746f6b656e55524900000000000000000000000000000000000081525082611b17565b611992604051806060016040528060398152602001614c246039913961208f565b61199c33866129a9565b6119a685826129c7565b33600c8b8b6040516119b9929190613e28565b908152602001604051809103902060006101000a81548173ffffffffffffffffffffffffffffffffffffffff021916908373ffffffffffffffffffffffffffffffffffffffff1602179055508989600e60008881526020019081526020016000209190611a27929190612e64565b50611a326007612a3b565b50505050505050505050565b600080611a8e84848080601f016020809104026020016040519081016040528093929190818152602001838380828437600081840152601f19601f820116905080830192505050505050506121d5565b905060008111611ad3576040517f08c379a0000000000000000000000000000000000000000000000000000000008152600401611aca906143e0565b60405180910390fd5b6003811415611aec5766b1a2bc2ec50000915050611b11565b6004811415611b0557666a94d74f430000915050611b11565b662386f26fc100009150505b92915050565b611baf8282604051602401611b2d929190614400565b6040516020818303038152906040527f4b5c4277000000000000000000000000000000000000000000000000000000007bffffffffffffffffffffffffffffffffffffffffffffffffffffffff19166020820180517bffffffffffffffffffffffffffffffffffffffffffffffffffffffff8381831617835250505050612a51565b5050565b60007f01ffc9a7000000000000000000000000000000000000000000000000000000007bffffffffffffffffffffffffffffffffffffffffffffffffffffffff1916827bffffffffffffffffffffffffffffffffffffffffffffffffffffffff1916149050919050565b60008073ffffffffffffffffffffffffffffffffffffffff166002600084815260200190815260200160002060009054906101000a900473ffffffffffffffffffffffffffffffffffffffff1673ffffffffffffffffffffffffffffffffffffffff1614159050919050565b600033905090565b816004600083815260200190815260200160002060006101000a81548173ffffffffffffffffffffffffffffffffffffffff021916908373ffffffffffffffffffffffffffffffffffffffff160217905550808273ffffffffffffffffffffffffffffffffffffffff16611d0483610cb3565b73ffffffffffffffffffffffffffffffffffffffff167f8c5be1e5ebec7d5bd14f71427d1e84f3dd0314c0f7b2291e5b200ac8c7c3b92560405160405180910390a45050565b6000611d5582611c1d565b611d94576040517f08c379a0000000000000000000000000000000000000000000000000000000008152600401611d8b906144a9565b60405180910390fd5b6000611d9f83610cb3565b90508073ffffffffffffffffffffffffffffffffffffffff168473ffffffffffffffffffffffffffffffffffffffff161480611e0e57508373ffffffffffffffffffffffffffffffffffffffff16611df684610859565b73ffffffffffffffffffffffffffffffffffffffff16145b80611e1f5750611e1e81856115fb565b5b91505092915050565b8273ffffffffffffffffffffffffffffffffffffffff16611e4882610cb3565b73ffffffffffffffffffffffffffffffffffffffff1614611e9e576040517f08c379a0000000000000000000000000000000000000000000000000000000008152600401611e959061453b565b60405180910390fd5b600073ffffffffffffffffffffffffffffffffffffffff168273ffffffffffffffffffffffffffffffffffffffff161415611f0e576040517f08c379a0000000000000000000000000000000000000000000000000000000008152600401611f05906145cd565b60405180910390fd5b611f19838383612a7a565b611f24600082611c91565b6001600360008573ffffffffffffffffffffffffffffffffffffffff1673ffffffffffffffffffffffffffffffffffffffff1681526020019081526020016000206000828254611f7491906145ed565b925050819055506001600360008473ffffffffffffffffffffffffffffffffffffffff1673ffffffffffffffffffffffffffffffffffffffff1681526020019081526020016000206000828254611fcb9190614621565b92505081905550816002600083815260200190815260200160002060006101000a81548173ffffffffffffffffffffffffffffffffffffffff021916908373ffffffffffffffffffffffffffffffffffffffff160217905550808273ffffffffffffffffffffffffffffffffffffffff168473ffffffffffffffffffffffffffffffffffffffff167fddf252ad1be2c89b69c2b068fc378daa952ba7f163c4a11628f55a4df523b3ef60405160405180910390a461208a838383612a7f565b505050565b612125816040516024016120a391906130f5565b6040516020818303038152906040527f41304fac000000000000000000000000000000000000000000000000000000007bffffffffffffffffffffffffffffffffffffffffffffffffffffffff19166020820180517bffffffffffffffffffffffffffffffffffffffffffffffffffffffff8381831617835250505050612a51565b50565b600081600001549050919050565b6121d083838360405160240161214e93929190614677565b6040516020818303038152906040527fa3f5c739000000000000000000000000000000000000000000000000000000007bffffffffffffffffffffffffffffffffffffffffffffffffffffffff19166020820180517bffffffffffffffffffffffffffffffffffffffffffffffffffffffff8381831617835250505050612a51565b505050565b60008060008084519050600092505b8082101561237f57600085838151811061220157612200613cbf565b5b602001015160f81c60f81b9050608060f81b817effffffffffffffffffffffffffffffffffffffffffffffffffffffffffffff19161015612250576001836122499190614621565b925061236b565b60e060f81b817effffffffffffffffffffffffffffffffffffffffffffffffffffffffffffff191610156122925760028361228b9190614621565b925061236a565b60f060f81b817effffffffffffffffffffffffffffffffffffffffffffffffffffffffffffff191610156122d4576003836122cd9190614621565b9250612369565b60f8801b817effffffffffffffffffffffffffffffffffffffffffffffffffffffffffffff191610156123155760048361230e9190614621565b9250612368565b60fc60f81b817effffffffffffffffffffffffffffffffffffffffffffffffffffffffffffff19161015612357576005836123509190614621565b9250612367565b6006836123649190614621565b92505b5b5b5b5b50828061237790613d1d565b9350506121e4565b829350505050919050565b8173ffffffffffffffffffffffffffffffffffffffff168373ffffffffffffffffffffffffffffffffffffffff1614156123f9576040517f08c379a00000000000000000000000000000000000000000000000000000000081526004016123f090614708565b60405180910390fd5b80600560008573ffffffffffffffffffffffffffffffffffffffff1673ffffffffffffffffffffffffffffffffffffffff16815260200190815260200160002060008473ffffffffffffffffffffffffffffffffffffffff1673ffffffffffffffffffffffffffffffffffffffff16815260200190815260200160002060006101000a81548160ff0219169083151502179055508173ffffffffffffffffffffffffffffffffffffffff168373ffffffffffffffffffffffffffffffffffffffff167f17307eab39ab6107e8899845ad3d59bd9653f200f220920489ca2b5937696c31836040516124ea9190613041565b60405180910390a3505050565b612502848484611e28565b61250e84848484612a84565b61254d576040517f08c379a00000000000000000000000000000000000000000000000000000000081526004016125449061479a565b60405180910390fd5b50505050565b606060405180602001604052806000815250905090565b606061257582611c1d565b6125b4576040517f08c379a00000000000000000000000000000000000000000000000000000000081526004016125ab9061482c565b60405180910390fd5b60006125be612553565b905060008151116125de5760405180602001604052806000815250612609565b806125e884612611565b6040516020016125f9929190613f04565b6040516020818303038152906040525b915050919050565b60606000821415612659576040518060400160405280600181526020017f3000000000000000000000000000000000000000000000000000000000000000815250905061276d565b600082905060005b6000821461268b57808061267490613d1d565b915050600a82612684919061487b565b9150612661565b60008167ffffffffffffffff8111156126a7576126a661329f565b5b6040519080825280601f01601f1916602001820160405280156126d95781602001600182028036833780820191505090505b5090505b60008514612766576001826126f291906145ed565b9150600a8561270191906148ac565b603061270d9190614621565b60f81b81838151811061272357612722613cbf565b5b60200101907effffffffffffffffffffffffffffffffffffffffffffffffffffffffffffff1916908160001a905350600a8561275f919061487b565b94506126dd565b8093505050505b919050565b61280c83838360405160240161278a939291906148dd565b6040516020818303038152906040527ff362ca59000000000000000000000000000000000000000000000000000000007bffffffffffffffffffffffffffffffffffffffffffffffffffffffff19166020820180517bffffffffffffffffffffffffffffffffffffffffffffffffffffffff8381831617835250505050612a51565b505050565b6060600082519050600081141561283a57604051806020016040528060008152509150506129a4565b6000600360028361284b9190614621565b612855919061487b565b60046128619190614922565b905060006020826128729190614621565b67ffffffffffffffff81111561288b5761288a61329f565b5b6040519080825280601f01601f1916602001820160405280156128bd5781602001600182028036833780820191505090505b5090506000604051806060016040528060408152602001614c5d604091399050600181016020830160005b868110156129615760038101905062ffffff818a015116603f8160121c168401518060081b905060ff603f83600c1c1686015116810190508060081b905060ff603f8360061c1686015116810190508060081b905060ff603f831686015116810190508060e01b905080845260048401935050506128e8565b50600386066001811461297b576002811461298b57612996565b613d3d60f01b6002830352612996565b603d60f81b60018303525b508484525050819450505050505b919050565b6129c3828260405180602001604052806000815250612c0c565b5050565b6129d082611c1d565b612a0f576040517f08c379a0000000000000000000000000000000000000000000000000000000008152600401612a06906149ee565b60405180910390fd5b80600660008481526020019081526020016000209080519060200190612a36929190612eea565b505050565b6001816000016000828254019250508190555050565b60008151905060006a636f6e736f6c652e6c6f679050602083016000808483855afa5050505050565b505050565b505050565b6000612aa58473ffffffffffffffffffffffffffffffffffffffff16612c67565b15612bff578373ffffffffffffffffffffffffffffffffffffffff1663150b7a02612ace611c89565b8786866040518563ffffffff1660e01b8152600401612af09493929190614a63565b6020604051808303816000875af1925050508015612b2c57506040513d601f19601f82011682018060405250810190612b299190614ac4565b60015b612baf573d8060008114612b5c576040519150601f19603f3d011682016040523d82523d6000602084013e612b61565b606091505b50600081511415612ba7576040517f08c379a0000000000000000000000000000000000000000000000000000000008152600401612b9e9061479a565b60405180910390fd5b805181602001fd5b63150b7a0260e01b7bffffffffffffffffffffffffffffffffffffffffffffffffffffffff1916817bffffffffffffffffffffffffffffffffffffffffffffffffffffffff191614915050612c04565b600190505b949350505050565b612c168383612c8a565b612c236000848484612a84565b612c62576040517f08c379a0000000000000000000000000000000000000000000000000000000008152600401612c599061479a565b60405180910390fd5b505050565b6000808273ffffffffffffffffffffffffffffffffffffffff163b119050919050565b600073ffffffffffffffffffffffffffffffffffffffff168273ffffffffffffffffffffffffffffffffffffffff161415612cfa576040517f08c379a0000000000000000000000000000000000000000000000000000000008152600401612cf190614b3d565b60405180910390fd5b612d0381611c1d565b15612d43576040517f08c379a0000000000000000000000000000000000000000000000000000000008152600401612d3a90614ba9565b60405180910390fd5b612d4f60008383612a7a565b6001600360008473ffffffffffffffffffffffffffffffffffffffff1673ffffffffffffffffffffffffffffffffffffffff1681526020019081526020016000206000828254612d9f9190614621565b92505081905550816002600083815260200190815260200160002060006101000a81548173ffffffffffffffffffffffffffffffffffffffff021916908373ffffffffffffffffffffffffffffffffffffffff160217905550808273ffffffffffffffffffffffffffffffffffffffff16600073ffffffffffffffffffffffffffffffffffffffff167fddf252ad1be2c89b69c2b068fc378daa952ba7f163c4a11628f55a4df523b3ef60405160405180910390a4612e6060008383612a7f565b5050565b828054612e7090613901565b90600052602060002090601f016020900481019282612e925760008555612ed9565b82601f10612eab57803560ff1916838001178555612ed9565b82800160010185558215612ed9579182015b82811115612ed8578235825591602001919060010190612ebd565b5b509050612ee69190612f70565b5090565b828054612ef690613901565b90600052602060002090601f016020900481019282612f185760008555612f5f565b82601f10612f3157805160ff1916838001178555612f5f565b82800160010185558215612f5f579182015b82811115612f5e578251825591602001919060010190612f43565b5b509050612f6c9190612f70565b5090565b5b80821115612f89576000816000905550600101612f71565b5090565b6000604051905090565b600080fd5b600080fd5b60007fffffffff0000000000000000000000000000000000000000000000000000000082169050919050565b612fd681612fa1565b8114612fe157600080fd5b50565b600081359050612ff381612fcd565b92915050565b60006020828403121561300f5761300e612f97565b5b600061301d84828501612fe4565b91505092915050565b60008115159050919050565b61303b81613026565b82525050565b60006020820190506130566000830184613032565b92915050565b600081519050919050565b600082825260208201905092915050565b60005b8381101561309657808201518184015260208101905061307b565b838111156130a5576000848401525b50505050565b6000601f19601f8301169050919050565b60006130c78261305c565b6130d18185613067565b93506130e1818560208601613078565b6130ea816130ab565b840191505092915050565b6000602082019050818103600083015261310f81846130bc565b905092915050565b6000819050919050565b61312a81613117565b811461313557600080fd5b50565b60008135905061314781613121565b92915050565b60006020828403121561316357613162612f97565b5b600061317184828501613138565b91505092915050565b600073ffffffffffffffffffffffffffffffffffffffff82169050919050565b60006131a58261317a565b9050919050565b6131b58161319a565b82525050565b60006020820190506131d060008301846131ac565b92915050565b6131df8161319a565b81146131ea57600080fd5b50565b6000813590506131fc816131d6565b92915050565b6000806040838503121561321957613218612f97565b5b6000613227858286016131ed565b925050602061323885828601613138565b9150509250929050565b60008060006060848603121561325b5761325a612f97565b5b6000613269868287016131ed565b935050602061327a868287016131ed565b925050604061328b86828701613138565b9150509250925092565b600080fd5b600080fd5b7f4e487b7100000000000000000000000000000000000000000000000000000000600052604160045260246000fd5b6132d7826130ab565b810181811067ffffffffffffffff821117156132f6576132f561329f565b5b80604052505050565b6000613309612f8d565b905061331582826132ce565b919050565b600067ffffffffffffffff8211156133355761333461329f565b5b61333e826130ab565b9050602081019050919050565b82818337600083830152505050565b600061336d6133688461331a565b6132ff565b9050828152602081018484840111156133895761338861329a565b5b61339484828561334b565b509392505050565b600082601f8301126133b1576133b0613295565b5b81356133c184826020860161335a565b91505092915050565b6000602082840312156133e0576133df612f97565b5b600082013567ffffffffffffffff8111156133fe576133fd612f9c565b5b61340a8482850161339c565b91505092915050565b600081519050919050565b600082825260208201905092915050565b6000819050602082019050919050565b600082825260208201905092915050565b600061345b8261305c565b613465818561343f565b9350613475818560208601613078565b61347e816130ab565b840191505092915050565b60006134958383613450565b905092915050565b6000602082019050919050565b60006134b582613413565b6134bf818561341e565b9350836020820285016134d18561342f565b8060005b8581101561350d57848403895281516134ee8582613489565b94506134f98361349d565b925060208a019950506001810190506134d5565b50829750879550505050505092915050565b6000602082019050818103600083015261353981846134aa565b905092915050565b60006020828403121561355757613556612f97565b5b6000613565848285016131ed565b91505092915050565b61357781613117565b82525050565b6000602082019050613592600083018461356e565b92915050565b600080fd5b600080fd5b60008083601f8401126135b8576135b7613295565b5b8235905067ffffffffffffffff8111156135d5576135d4613598565b5b6020830191508360018202830111156135f1576135f061359d565b5b9250929050565b6000806020838503121561360f5761360e612f97565b5b600083013567ffffffffffffffff81111561362d5761362c612f9c565b5b613639858286016135a2565b92509250509250929050565b6000806000806040858703121561365f5761365e612f97565b5b600085013567ffffffffffffffff81111561367d5761367c612f9c565b5b613689878288016135a2565b9450945050602085013567ffffffffffffffff8111156136ac576136ab612f9c565b5b6136b8878288016135a2565b925092505092959194509250565b60006136d18261317a565b9050919050565b6136e1816136c6565b82525050565b60006020820190506136fc60008301846136d8565b92915050565b61370b81613026565b811461371657600080fd5b50565b60008135905061372881613702565b92915050565b6000806040838503121561374557613744612f97565b5b6000613753858286016131ed565b925050602061376485828601613719565b9150509250929050565b600067ffffffffffffffff8211156137895761378861329f565b5b613792826130ab565b9050602081019050919050565b60006137b26137ad8461376e565b6132ff565b9050828152602081018484840111156137ce576137cd61329a565b5b6137d984828561334b565b509392505050565b600082601f8301126137f6576137f5613295565b5b813561380684826020860161379f565b91505092915050565b6000806000806080858703121561382957613828612f97565b5b6000613837878288016131ed565b9450506020613848878288016131ed565b935050604061385987828801613138565b925050606085013567ffffffffffffffff81111561387a57613879612f9c565b5b613886878288016137e1565b91505092959194509250565b600080604083850312156138a9576138a8612f97565b5b60006138b7858286016131ed565b92505060206138c8858286016131ed565b9150509250929050565b7f4e487b7100000000000000000000000000000000000000000000000000000000600052602260045260246000fd5b6000600282049050600182168061391957607f821691505b6020821081141561392d5761392c6138d2565b5b50919050565b7f4552433732313a20617070726f76656420717565727920666f72206e6f6e657860008201527f697374656e7420746f6b656e0000000000000000000000000000000000000000602082015250565b600061398f602c83613067565b915061399a82613933565b604082019050919050565b600060208201905081810360008301526139be81613982565b9050919050565b7f4552433732313a20617070726f76616c20746f2063757272656e74206f776e6560008201527f7200000000000000000000000000000000000000000000000000000000000000602082015250565b6000613a21602183613067565b9150613a2c826139c5565b604082019050919050565b60006020820190508181036000830152613a5081613a14565b9050919050565b7f4552433732313a20617070726f76652063616c6c6572206973206e6f74206f7760008201527f6e6572206e6f7220617070726f76656420666f7220616c6c0000000000000000602082015250565b6000613ab3603883613067565b9150613abe82613a57565b604082019050919050565b60006020820190508181036000830152613ae281613aa6565b9050919050565b7f4552433732313a207472616e736665722063616c6c6572206973206e6f74206f60008201527f776e6572206e6f7220617070726f766564000000000000000000000000000000602082015250565b6000613b45603183613067565b9150613b5082613ae9565b604082019050919050565b60006020820190508181036000830152613b7481613b38565b9050919050565b600081905092915050565b50565b6000613b96600083613b7b565b9150613ba182613b86565b600082019050919050565b6000613bb782613b89565b9150819050919050565b7f4661696c656420746f207769746864726177204d617469630000000000000000600082015250565b6000613bf7601883613067565b9150613c0282613bc1565b602082019050919050565b60006020820190508181036000830152613c2681613bea565b9050919050565b7f4552433732313a206f776e657220717565727920666f72206e6f6e657869737460008201527f656e7420746f6b656e0000000000000000000000000000000000000000000000602082015250565b6000613c89602983613067565b9150613c9482613c2d565b604082019050919050565b60006020820190508181036000830152613cb881613c7c565b9050919050565b7f4e487b7100000000000000000000000000000000000000000000000000000000600052603260045260246000fd5b7f4e487b7100000000000000000000000000000000000000000000000000000000600052601160045260246000fd5b6000613d2882613117565b91507fffffffffffffffffffffffffffffffffffffffffffffffffffffffffffffffff821415613d5b57613d5a613cee565b5b600182019050919050565b7f4552433732313a2062616c616e636520717565727920666f7220746865207a6560008201527f726f206164647265737300000000000000000000000000000000000000000000602082015250565b6000613dc2602a83613067565b9150613dcd82613d66565b604082019050919050565b60006020820190508181036000830152613df181613db5565b9050919050565b600081905092915050565b6000613e0f8385613df8565b9350613e1c83858461334b565b82840190509392505050565b6000613e35828486613e03565b91508190509392505050565b7f45524337323155524953746f726167653a2055524920717565727920666f722060008201527f6e6f6e6578697374656e7420746f6b656e000000000000000000000000000000602082015250565b6000613e9d603183613067565b9150613ea882613e41565b604082019050919050565b60006020820190508181036000830152613ecc81613e90565b9050919050565b6000613ede8261305c565b613ee88185613df8565b9350613ef8818560208601613078565b80840191505092915050565b6000613f108285613ed3565b9150613f1c8284613ed3565b91508190509392505050565b6000613f348385613067565b9350613f4183858461334b565b613f4a836130ab565b840190509392505050565b60006020820190508181036000830152613f70818486613f28565b90509392505050565b7f4e6f7420656e6f756768204d6174696320706169640000000000000000000000600082015250565b6000613faf601583613067565b9150613fba82613f79565b602082019050919050565b60006020820190508181036000830152613fde81613fa2565b9050919050565b7f2e00000000000000000000000000000000000000000000000000000000000000600082015250565b600061401b600183613df8565b915061402682613fe5565b600182019050919050565b60008190508160005260206000209050919050565b6000815461405381613901565b61405d8186613df8565b945060018216600081146140785760018114614089576140bc565b60ff198316865281860193506140bc565b61409285614031565b60005b838110156140b457815481890152600182019150602081019050614095565b838801955050505b50505092915050565b60006140d2828587613e03565b91506140dd8261400e565b91506140e98284614046565b9150819050949350505050565b60006141028286614046565b915061410e8285613ed3565b915061411a8284614046565b9150819050949350505050565b7f7b226e616d65223a202200000000000000000000000000000000000000000000600082015250565b600061415d600a83613df8565b915061416882614127565b600a82019050919050565b7f222c20226465736372697074696f6e223a20224120646f6d61696e206f6e207460008201527f6865204e616d696e672053657276696365222c2022696d616765223a2022646160208201527f74613a696d6167652f7376672b786d6c3b6261736536342c0000000000000000604082015250565b60006141f5605883613df8565b915061420082614173565b605882019050919050565b7f222c226c656e677468223a220000000000000000000000000000000000000000600082015250565b6000614241600c83613df8565b915061424c8261420b565b600c82019050919050565b7f227d000000000000000000000000000000000000000000000000000000000000600082015250565b600061428d600283613df8565b915061429882614257565b600282019050919050565b60006142ae82614150565b91506142ba8286613ed3565b91506142c5826141e8565b91506142d18285613ed3565b91506142dc82614234565b91506142e88284613ed3565b91506142f382614280565b9150819050949350505050565b7f646174613a6170706c69636174696f6e2f6a736f6e3b6261736536342c000000600082015250565b6000614336601d83613df8565b915061434182614300565b601d82019050919050565b600061435782614329565b91506143638284613ed3565b915081905092915050565b7f43616e2774207265747269657665206120707269636520666f722061207a657260008201527f6f206c656e67746820646f6d61696e0000000000000000000000000000000000602082015250565b60006143ca602f83613067565b91506143d58261436e565b604082019050919050565b600060208201905081810360008301526143f9816143bd565b9050919050565b6000604082019050818103600083015261441a81856130bc565b9050818103602083015261442e81846130bc565b90509392505050565b7f4552433732313a206f70657261746f7220717565727920666f72206e6f6e657860008201527f697374656e7420746f6b656e0000000000000000000000000000000000000000602082015250565b6000614493602c83613067565b915061449e82614437565b604082019050919050565b600060208201905081810360008301526144c281614486565b9050919050565b7f4552433732313a207472616e736665722066726f6d20696e636f72726563742060008201527f6f776e6572000000000000000000000000000000000000000000000000000000602082015250565b6000614525602583613067565b9150614530826144c9565b604082019050919050565b6000602082019050818103600083015261455481614518565b9050919050565b7f4552433732313a207472616e7366657220746f20746865207a65726f2061646460008201527f7265737300000000000000000000000000000000000000000000000000000000602082015250565b60006145b7602483613067565b91506145c28261455b565b604082019050919050565b600060208201905081810360008301526145e6816145aa565b9050919050565b60006145f882613117565b915061460383613117565b92508282101561461657614615613cee565b5b828203905092915050565b600061462c82613117565b915061463783613117565b9250827fffffffffffffffffffffffffffffffffffffffffffffffffffffffffffffffff0382111561466c5761466b613cee565b5b828201905092915050565b6000606082019050818103600083015261469181866130bc565b90506146a0602083018561356e565b81810360408301526146b281846130bc565b9050949350505050565b7f4552433732313a20617070726f766520746f2063616c6c657200000000000000600082015250565b60006146f2601983613067565b91506146fd826146bc565b602082019050919050565b60006020820190508181036000830152614721816146e5565b9050919050565b7f4552433732313a207472616e7366657220746f206e6f6e20455243373231526560008201527f63656976657220696d706c656d656e7465720000000000000000000000000000602082015250565b6000614784603283613067565b915061478f82614728565b604082019050919050565b600060208201905081810360008301526147b381614777565b9050919050565b7f4552433732314d657461646174613a2055524920717565727920666f72206e6f60008201527f6e6578697374656e7420746f6b656e0000000000000000000000000000000000602082015250565b6000614816602f83613067565b9150614821826147ba565b604082019050919050565b6000602082019050818103600083015261484581614809565b9050919050565b7f4e487b7100000000000000000000000000000000000000000000000000000000600052601260045260246000fd5b600061488682613117565b915061489183613117565b9250826148a1576148a061484c565b5b828204905092915050565b60006148b782613117565b91506148c283613117565b9250826148d2576148d161484c565b5b828206905092915050565b600060608201905081810360008301526148f781866130bc565b9050818103602083015261490b81856130bc565b905061491a604083018461356e565b949350505050565b600061492d82613117565b915061493883613117565b9250817fffffffffffffffffffffffffffffffffffffffffffffffffffffffffffffffff048311821515161561497157614970613cee565b5b828202905092915050565b7f45524337323155524953746f726167653a2055524920736574206f66206e6f6e60008201527f6578697374656e7420746f6b656e000000000000000000000000000000000000602082015250565b60006149d8602e83613067565b91506149e38261497c565b604082019050919050565b60006020820190508181036000830152614a07816149cb565b9050919050565b600081519050919050565b600082825260208201905092915050565b6000614a3582614a0e565b614a3f8185614a19565b9350614a4f818560208601613078565b614a58816130ab565b840191505092915050565b6000608082019050614a7860008301876131ac565b614a8560208301866131ac565b614a92604083018561356e565b8181036060830152614aa48184614a2a565b905095945050505050565b600081519050614abe81612fcd565b92915050565b600060208284031215614ada57614ad9612f97565b5b6000614ae884828501614aaf565b91505092915050565b7f4552433732313a206d696e7420746f20746865207a65726f2061646472657373600082015250565b6000614b27602083613067565b9150614b3282614af1565b602082019050919050565b60006020820190508181036000830152614b5681614b1a565b9050919050565b7f4552433732313a20746f6b656e20616c7265616479206d696e74656400000000600082015250565b6000614b93601c83613067565b9150614b9e82614b5d565b602082019050919050565b60006020820190508181036000830152614bc281614b86565b905091905056fe47657474696e6720616c6c20706c616e6574732066726f6d20636f6e74726163740a2d2d2d2d2d2d2d2d2d2d2d2d2d2d2d2d2d2d2d2d2d2d2d2d2d2d2d2d2d2d2d2d2d2d2d2d2d2d2d2d2d2d2d2d2d2d2d2d2d2d2d2d2d2d2d2d2d2d2d2d2d2d2d2d2d2d2d2d2d2d2d2d2d2d2d2d2d2d2d2d2d2d2d2d2d2d2d2d2d2d2d2d2d2d2d2d2d2d2d2d2d2d2d2d2d2d2d2d2d2d2d2d0a4142434445464748494a4b4c4d4e4f505152535455565758595a6162636465666768696a6b6c6d6e6f707172737475767778797a303132333435363738392b2f5265676973746572696e67202573206f6e2074686520636f6e7472616374207769746820746f6b656e4944202564a2646970667358221220ea4868d1bcca65350ae12bee53e81b3dd10e99aeae1ae5438066a9d4069b6ea564736f6c634300080a00333c73766720786d6c6e733d22687474703a2f2f7777772e77332e6f72672f323030302f737667222077696474683d2232373022206865696768743d22323730222066696c6c3d226e6f6e65223e3c706174682066696c6c3d2275726c282342292220643d224d302030683237307632373048307a222f3e3c646566733e3c66696c7465722069643d22412220636f6c6f722d696e746572706f6c6174696f6e2d66696c746572733d2273524742222066696c746572556e6974733d227573657253706163654f6e55736522206865696768743d22323730222077696474683d22323730223e3c666544726f70536861646f772064783d2230222064793d22312220737464446576696174696f6e3d22322220666c6f6f642d6f7061636974793d222e323235222077696474683d223230302522206865696768743d2232303025222f3e3c2f66696c7465723e3c2f646566733e3c7061746820643d224d37322e3836332034322e393439632d2e3636382d2e3338372d312e3432362d2e35392d322e3139372d2e3539732d312e3532392e3230342d322e3139372e35396c2d31302e30383120362e3033322d362e383520332e3933342d31302e30383120362e303332632d2e3636382e3338372d312e3432362e35392d322e3139372e3539732d312e3532392d2e3230342d322e3139372d2e35396c2d382e3031332d342e37323161342e353220342e35322030203020312d312e3538392d312e363136632d2e3338342d2e3636352d2e3539342d312e3431382d2e3630382d322e313837762d392e3331632d2e3031332d2e3737352e3138352d312e3533382e3537322d322e32303861342e323520342e323520302030203120312e3632352d312e3539356c372e3838342d342e3539632e3636382d2e33383720312e3432362d2e353920322e3139372d2e353973312e3532392e32303420322e3139372e35396c372e38383420342e353961342e353220342e353220302030203120312e35383920312e363136632e3338342e3636352e35393420312e3431382e36303820322e31383776362e3033326c362e38352d342e303635762d362e303332632e3031332d2e3737352d2e3138352d312e3533382d2e3537322d322e32303861342e323520342e32352030203020302d312e3632352d312e3539354c34312e3435362032342e3539632d2e3636382d2e3338372d312e3432362d2e35392d322e3139372d2e3539732d312e3532392e3230342d322e3139372e35396c2d31342e38363420382e36353561342e323520342e32352030203020302d312e36323520312e353935632d2e3338372e36372d2e35383520312e3433342d2e35373220322e3230387631372e343431632d2e3031332e3737352e31383520312e3533382e35373220322e32303861342e323520342e323520302030203020312e36323520312e3539356c31342e38363420382e363535632e3636382e33383720312e3432362e353920322e3139372e353973312e3532392d2e32303420322e3139372d2e35396c31302e3038312d352e39303120362e38352d342e3036352031302e3038312d352e393031632e3636382d2e33383720312e3432362d2e353920322e3139372d2e353973312e3532392e32303420322e3139372e35396c372e38383420342e353961342e353220342e353220302030203120312e35383920312e363136632e3338342e3636352e35393420312e3431382e36303820322e31383776392e333131632e3031332e3737352d2e31383520312e3533382d2e35373220322e32303861342e323520342e32352030203020312d312e36323520312e3539356c2d372e38383420342e373231632d2e3636382e3338372d312e3432362e35392d322e3139372e3539732d312e3532392d2e3230342d322e3139372d2e35396c2d372e3838342d342e353961342e353220342e35322030203020312d312e3538392d312e363136632d2e3338352d2e3636352d2e3539342d312e3431382d2e3630382d322e313837762d362e3033326c2d362e383520342e30363576362e303332632d2e3031332e3737352e31383520312e3533382e35373220322e32303861342e323520342e323520302030203020312e36323520312e3539356c31342e38363420382e363535632e3636382e33383720312e3432362e353920322e3139372e353973312e3532392d2e32303420322e3139372d2e35396c31342e3836342d382e363535632e3635372d2e33393420312e3230342d2e393520312e3538392d312e363136732e3539342d312e3431382e3630392d322e3138375635352e353338632e3031332d2e3737352d2e3138352d312e3533382d2e3537322d322e32303861342e323520342e32352030203020302d312e3632352d312e3539356c2d31342e3939332d382e3738367a222066696c6c3d2223666666222f3e3c646566733e3c6c696e6561724772616469656e742069643d2242222078313d2230222079313d2230222078323d22323730222079323d2232373022206772616469656e74556e6974733d227573657253706163654f6e557365223e3c73746f702073746f702d636f6c6f723d2223393030222f3e3c73746f70206f66667365743d2231222073746f702d636f6c6f723d2223366133323966222073746f702d6f7061636974793d222e3939222f3e3c2f6c696e6561724772616469656e743e3c2f646566733e3c7465787420783d2233322e352220793d223233312220666f6e742d73697a653d223230222066696c6c3d2223666666222066696c7465723d2275726c282341292220666f6e742d66616d696c793d22506c7573204a616b617274612053616e732c44656a6156752053616e732c4e6f746f20436f6c6f7220456d6f6a692c4170706c6520436f6c6f7220456d6f6a692c73616e732d73657269662220666f6e742d7765696768743d22626f6c64223e416e64726f6d6564612047616c61787920506c616e6574204e616d696e672053657276696365",
  "linkReferences": {},
  "deployedLinkReferences": {}
}